{
	"data": {
		"bytecode": {
			"linkReferences": {},
			"object": "61016060405234801562000011575f80fd5b5060405162002ffb38038062002ffb83398181016040528101906200003791906200078e565b336040518060400160405280600b81526020017f5a7461636869546f6b656e000000000000000000000000000000000000000000815250806040518060400160405280600181526020017f31000000000000000000000000000000000000000000000000000000000000008152506040518060400160405280600b81526020017f5a7461636869546f6b656e0000000000000000000000000000000000000000008152506040518060400160405280600481526020017f5a49544b00000000000000000000000000000000000000000000000000000000815250816003908162000122919062000a19565b50806004908162000134919062000a19565b5050506200014d600583620002bd60201b90919060201c565b61012081815250506200016b600682620002bd60201b90919060201c565b6101408181525050818051906020012060e08181525050808051906020012061010081815250504660a08181525050620001aa6200031260201b60201c565b608081815250503073ffffffffffffffffffffffffffffffffffffffff1660c08173ffffffffffffffffffffffffffffffffffffffff16815250505050505f73ffffffffffffffffffffffffffffffffffffffff168173ffffffffffffffffffffffffffffffffffffffff16036200025b575f6040517f1e4fbdf700000000000000000000000000000000000000000000000000000000815260040162000252919062000b40565b60405180910390fd5b6200026c816200036e60201b60201c565b505f6002826200027d919062000bb5565b90505f81836200028e919062000bec565b9050620002a233836200043160201b60201c565b620002b430826200043160201b60201c565b50505062000e86565b5f602083511015620002e257620002da83620004bb60201b60201c565b90506200030c565b82620002f4836200052560201b60201c565b5f01908162000304919062000a19565b5060ff5f1b90505b92915050565b5f7f8b73c3c69bb8fe3d512ecc4cf759cc79239f7b179b0ffacaa9a75d522b39400f60e0516101005146306040516020016200035395949392919062000c51565b60405160208183030381529060405280519060200120905090565b5f60085f9054906101000a900473ffffffffffffffffffffffffffffffffffffffff1690508160085f6101000a81548173ffffffffffffffffffffffffffffffffffffffff021916908373ffffffffffffffffffffffffffffffffffffffff1602179055508173ffffffffffffffffffffffffffffffffffffffff168173ffffffffffffffffffffffffffffffffffffffff167f8be0079c531659141344cd1fd0a4f28419497f9722a3daafe3b4186f6b6457e060405160405180910390a35050565b5f73ffffffffffffffffffffffffffffffffffffffff168273ffffffffffffffffffffffffffffffffffffffff1603620004a4575f6040517fec442f050000000000000000000000000000000000000000000000000000000081526004016200049b919062000b40565b60405180910390fd5b620004b75f83836200052e60201b60201c565b5050565b5f80829050601f815111156200050a57826040517f305a27a900000000000000000000000000000000000000000000000000000000815260040162000501919062000d36565b60405180910390fd5b805181620005189062000d87565b5f1c175f1b915050919050565b5f819050919050565b5f73ffffffffffffffffffffffffffffffffffffffff168373ffffffffffffffffffffffffffffffffffffffff160362000582578060025f82825462000575919062000df6565b9250508190555062000653565b5f805f8573ffffffffffffffffffffffffffffffffffffffff1673ffffffffffffffffffffffffffffffffffffffff1681526020019081526020015f20549050818110156200060e578381836040517fe450d38c000000000000000000000000000000000000000000000000000000008152600401620006059392919062000e30565b60405180910390fd5b8181035f808673ffffffffffffffffffffffffffffffffffffffff1673ffffffffffffffffffffffffffffffffffffffff1681526020019081526020015f2081905550505b5f73ffffffffffffffffffffffffffffffffffffffff168273ffffffffffffffffffffffffffffffffffffffff16036200069c578060025f8282540392505081905550620006e6565b805f808473ffffffffffffffffffffffffffffffffffffffff1673ffffffffffffffffffffffffffffffffffffffff1681526020019081526020015f205f82825401925050819055505b8173ffffffffffffffffffffffffffffffffffffffff168373ffffffffffffffffffffffffffffffffffffffff167fddf252ad1be2c89b69c2b068fc378daa952ba7f163c4a11628f55a4df523b3ef8360405162000745919062000e6b565b60405180910390a3505050565b5f80fd5b5f819050919050565b6200076a8162000756565b811462000775575f80fd5b50565b5f8151905062000788816200075f565b92915050565b5f60208284031215620007a657620007a562000752565b5b5f620007b58482850162000778565b91505092915050565b5f81519050919050565b7f4e487b71000000000000000000000000000000000000000000000000000000005f52604160045260245ffd5b7f4e487b71000000000000000000000000000000000000000000000000000000005f52602260045260245ffd5b5f60028204905060018216806200083a57607f821691505b60208210810362000850576200084f620007f5565b5b50919050565b5f819050815f5260205f209050919050565b5f6020601f8301049050919050565b5f82821b905092915050565b5f60088302620008b47fffffffffffffffffffffffffffffffffffffffffffffffffffffffffffffffff8262000877565b620008c0868362000877565b95508019841693508086168417925050509392505050565b5f819050919050565b5f62000901620008fb620008f58462000756565b620008d8565b62000756565b9050919050565b5f819050919050565b6200091c83620008e1565b620009346200092b8262000908565b84845462000883565b825550505050565b5f90565b6200094a6200093c565b6200095781848462000911565b505050565b5b818110156200097e57620009725f8262000940565b6001810190506200095d565b5050565b601f821115620009cd57620009978162000856565b620009a28462000868565b81016020851015620009b2578190505b620009ca620009c18562000868565b8301826200095c565b50505b505050565b5f82821c905092915050565b5f620009ef5f1984600802620009d2565b1980831691505092915050565b5f62000a098383620009de565b9150826002028217905092915050565b62000a2482620007be565b67ffffffffffffffff81111562000a405762000a3f620007c8565b5b62000a4c825462000822565b62000a5982828562000982565b5f60209050601f83116001811462000a8f575f841562000a7a578287015190505b62000a868582620009fc565b86555062000af5565b601f19841662000a9f8662000856565b5f5b8281101562000ac85784890151825560018201915060208501945060208101905062000aa1565b8683101562000ae8578489015162000ae4601f891682620009de565b8355505b6001600288020188555050505b505050505050565b5f73ffffffffffffffffffffffffffffffffffffffff82169050919050565b5f62000b288262000afd565b9050919050565b62000b3a8162000b1c565b82525050565b5f60208201905062000b555f83018462000b2f565b92915050565b7f4e487b71000000000000000000000000000000000000000000000000000000005f52601260045260245ffd5b7f4e487b71000000000000000000000000000000000000000000000000000000005f52601160045260245ffd5b5f62000bc18262000756565b915062000bce8362000756565b92508262000be15762000be062000b5b565b5b828204905092915050565b5f62000bf88262000756565b915062000c058362000756565b925082820390508181111562000c205762000c1f62000b88565b5b92915050565b5f819050919050565b62000c3a8162000c26565b82525050565b62000c4b8162000756565b82525050565b5f60a08201905062000c665f83018862000c2f565b62000c75602083018762000c2f565b62000c84604083018662000c2f565b62000c93606083018562000c40565b62000ca2608083018462000b2f565b9695505050505050565b5f82825260208201905092915050565b5f5b8381101562000cdb57808201518184015260208101905062000cbe565b5f8484015250505050565b5f601f19601f8301169050919050565b5f62000d0282620007be565b62000d0e818562000cac565b935062000d2081856020860162000cbc565b62000d2b8162000ce6565b840191505092915050565b5f6020820190508181035f83015262000d50818462000cf6565b905092915050565b5f81519050919050565b5f819050602082019050919050565b5f62000d7e825162000c26565b80915050919050565b5f62000d938262000d58565b8262000d9f8462000d62565b905062000dac8162000d71565b9250602082101562000def5762000dea7fffffffffffffffffffffffffffffffffffffffffffffffffffffffffffffffff8360200360080262000877565b831692505b5050919050565b5f62000e028262000756565b915062000e0f8362000756565b925082820190508082111562000e2a5762000e2962000b88565b5b92915050565b5f60608201905062000e455f83018662000b2f565b62000e54602083018562000c40565b62000e63604083018462000c40565b949350505050565b5f60208201905062000e805f83018462000c40565b92915050565b60805160a05160c05160e05161010051610120516101405161212362000ed85f395f610f1101525f610ed601525f61140a01525f6113e901525f610b8c01525f610be201525f610c0b01526121235ff3fe608060405234801561000f575f80fd5b5060043610610135575f3560e01c806379cc6790116100b657806395d89b411161007a57806395d89b411461032f578063a9059cbb1461034d578063d505accf1461037d578063dd62ed3e14610399578063f2fde38b146103c9578063f5bf3fcf146103e557610135565b806379cc6790146102835780637ecebe001461029f57806384b0196e146102cf5780638b7afe2e146102f35780638da5cb5b1461031157610135565b80633644e515116100fd5780633644e515146101f357806340c10f191461021157806342966c681461022d57806370a0823114610249578063715018a61461027957610135565b806306fdde0314610139578063095ea7b31461015757806318160ddd1461018757806323b872dd146101a5578063313ce567146101d5575b5f80fd5b610141610401565b60405161014e91906118da565b60405180910390f35b610171600480360381019061016c919061198b565b610491565b60405161017e91906119e3565b60405180910390f35b61018f6104b3565b60405161019c9190611a0b565b60405180910390f35b6101bf60048036038101906101ba9190611a24565b6104bc565b6040516101cc91906119e3565b60405180910390f35b6101dd6104ea565b6040516101ea9190611a8f565b60405180910390f35b6101fb6104f2565b6040516102089190611ac0565b60405180910390f35b61022b6004803603810190610226919061198b565b610500565b005b61024760048036038101906102429190611ad9565b610516565b005b610263600480360381019061025e9190611b04565b61052a565b6040516102709190611a0b565b60405180910390f35b61028161056f565b005b61029d6004803603810190610298919061198b565b610582565b005b6102b960048036038101906102b49190611b04565b6105a2565b6040516102c69190611a0b565b60405180910390f35b6102d76105b3565b6040516102ea9796959493929190611c2f565b60405180910390f35b6102fb610658565b6040516103089190611a0b565b60405180910390f35b610319610667565b6040516103269190611cb1565b60405180910390f35b61033761068f565b60405161034491906118da565b60405180910390f35b6103676004803603810190610362919061198b565b61071f565b60405161037491906119e3565b60405180910390f35b61039760048036038101906103929190611d1e565b610741565b005b6103b360048036038101906103ae9190611dbb565b610886565b6040516103c09190611a0b565b60405180910390f35b6103e360048036038101906103de9190611b04565b610908565b005b6103ff60048036038101906103fa919061198b565b61098c565b005b60606003805461041090611e26565b80601f016020809104026020016040519081016040528092919081815260200182805461043c90611e26565b80156104875780601f1061045e57610100808354040283529160200191610487565b820191905f5260205f20905b81548152906001019060200180831161046a57829003601f168201915b5050505050905090565b5f8061049b6109ee565b90506104a88185856109f5565b600191505092915050565b5f600254905090565b5f806104c66109ee565b90506104d3858285610a07565b6104de858585610a99565b60019150509392505050565b5f6012905090565b5f6104fb610b89565b905090565b610508610c3f565b6105128282610cc6565b5050565b6105276105216109ee565b82610d45565b50565b5f805f8373ffffffffffffffffffffffffffffffffffffffff1673ffffffffffffffffffffffffffffffffffffffff1681526020019081526020015f20549050919050565b610577610c3f565b6105805f610dc4565b565b6105948261058e6109ee565b83610a07565b61059e8282610d45565b5050565b5f6105ac82610e87565b9050919050565b5f6060805f805f60606105c4610ecd565b6105cc610f08565b46305f801b5f67ffffffffffffffff8111156105eb576105ea611e56565b5b6040519080825280602002602001820160405280156106195781602001602082028036833780820191505090505b507f0f00000000000000000000000000000000000000000000000000000000000000959493929190965096509650965096509650965090919293949596565b5f6106623061052a565b905090565b5f60085f9054906101000a900473ffffffffffffffffffffffffffffffffffffffff16905090565b60606004805461069e90611e26565b80601f01602080910402602001604051908101604052809291908181526020018280546106ca90611e26565b80156107155780601f106106ec57610100808354040283529160200191610715565b820191905f5260205f20905b8154815290600101906020018083116106f857829003601f168201915b5050505050905090565b5f806107296109ee565b9050610736818585610a99565b600191505092915050565b8342111561078657836040517f6279130200000000000000000000000000000000000000000000000000000000815260040161077d9190611a0b565b60405180910390fd5b5f7f6e71edae12b1b97f4d1f60370fef10105fa2faae0126114a169c64845d6126c98888886107b48c610f43565b896040516020016107ca96959493929190611e83565b6040516020818303038152906040528051906020012090505f6107ec82610f96565b90505f6107fb82878787610faf565b90508973ffffffffffffffffffffffffffffffffffffffff168173ffffffffffffffffffffffffffffffffffffffff161461086f57808a6040517f4b800e46000000000000000000000000000000000000000000000000000000008152600401610866929190611ee2565b60405180910390fd5b61087a8a8a8a6109f5565b50505050505050505050565b5f60015f8473ffffffffffffffffffffffffffffffffffffffff1673ffffffffffffffffffffffffffffffffffffffff1681526020019081526020015f205f8373ffffffffffffffffffffffffffffffffffffffff1673ffffffffffffffffffffffffffffffffffffffff1681526020019081526020015f2054905092915050565b610910610c3f565b5f73ffffffffffffffffffffffffffffffffffffffff168173ffffffffffffffffffffffffffffffffffffffff1603610980575f6040517f1e4fbdf70000000000000000000000000000000000000000000000000000000081526004016109779190611cb1565b60405180910390fd5b61098981610dc4565b50565b610994610c3f565b8061099e3061052a565b10156109df576040517f08c379a00000000000000000000000000000000000000000000000000000000081526004016109d690611f79565b60405180910390fd5b6109ea308383610a99565b5050565b5f33905090565b610a028383836001610fdd565b505050565b5f610a128484610886565b90507fffffffffffffffffffffffffffffffffffffffffffffffffffffffffffffffff8114610a935781811015610a84578281836040517ffb8f41b2000000000000000000000000000000000000000000000000000000008152600401610a7b93929190611f97565b60405180910390fd5b610a9284848484035f610fdd565b5b50505050565b5f73ffffffffffffffffffffffffffffffffffffffff168373ffffffffffffffffffffffffffffffffffffffff1603610b09575f6040517f96c6fd1e000000000000000000000000000000000000000000000000000000008152600401610b009190611cb1565b60405180910390fd5b5f73ffffffffffffffffffffffffffffffffffffffff168273ffffffffffffffffffffffffffffffffffffffff1603610b79575f6040517fec442f05000000000000000000000000000000000000000000000000000000008152600401610b709190611cb1565b60405180910390fd5b610b848383836111ac565b505050565b5f7f000000000000000000000000000000000000000000000000000000000000000073ffffffffffffffffffffffffffffffffffffffff163073ffffffffffffffffffffffffffffffffffffffff16148015610c0457507f000000000000000000000000000000000000000000000000000000000000000046145b15610c31577f00000000000000000000000000000000000000000000000000000000000000009050610c3c565b610c396113c5565b90505b90565b610c476109ee565b73ffffffffffffffffffffffffffffffffffffffff16610c65610667565b73ffffffffffffffffffffffffffffffffffffffff1614610cc457610c886109ee565b6040517f118cdaa7000000000000000000000000000000000000000000000000000000008152600401610cbb9190611cb1565b60405180910390fd5b565b5f73ffffffffffffffffffffffffffffffffffffffff168273ffffffffffffffffffffffffffffffffffffffff1603610d36575f6040517fec442f05000000000000000000000000000000000000000000000000000000008152600401610d2d9190611cb1565b60405180910390fd5b610d415f83836111ac565b5050565b5f73ffffffffffffffffffffffffffffffffffffffff168273ffffffffffffffffffffffffffffffffffffffff1603610db5575f6040517f96c6fd1e000000000000000000000000000000000000000000000000000000008152600401610dac9190611cb1565b60405180910390fd5b610dc0825f836111ac565b5050565b5f60085f9054906101000a900473ffffffffffffffffffffffffffffffffffffffff1690508160085f6101000a81548173ffffffffffffffffffffffffffffffffffffffff021916908373ffffffffffffffffffffffffffffffffffffffff1602179055508173ffffffffffffffffffffffffffffffffffffffff168173ffffffffffffffffffffffffffffffffffffffff167f8be0079c531659141344cd1fd0a4f28419497f9722a3daafe3b4186f6b6457e060405160405180910390a35050565b5f60075f8373ffffffffffffffffffffffffffffffffffffffff1673ffffffffffffffffffffffffffffffffffffffff1681526020019081526020015f20549050919050565b6060610f0360057f000000000000000000000000000000000000000000000000000000000000000061145a90919063ffffffff16565b905090565b6060610f3e60067f000000000000000000000000000000000000000000000000000000000000000061145a90919063ffffffff16565b905090565b5f60075f8373ffffffffffffffffffffffffffffffffffffffff1673ffffffffffffffffffffffffffffffffffffffff1681526020019081526020015f205f815480929190600101919050559050919050565b5f610fa8610fa2610b89565b83611507565b9050919050565b5f805f80610fbf88888888611547565b925092509250610fcf828261162e565b829350505050949350505050565b5f73ffffffffffffffffffffffffffffffffffffffff168473ffffffffffffffffffffffffffffffffffffffff160361104d575f6040517fe602df050000000000000000000000000000000000000000000000000000000081526004016110449190611cb1565b60405180910390fd5b5f73ffffffffffffffffffffffffffffffffffffffff168373ffffffffffffffffffffffffffffffffffffffff16036110bd575f6040517f94280d620000000000000000000000000000000000000000000000000000000081526004016110b49190611cb1565b60405180910390fd5b8160015f8673ffffffffffffffffffffffffffffffffffffffff1673ffffffffffffffffffffffffffffffffffffffff1681526020019081526020015f205f8573ffffffffffffffffffffffffffffffffffffffff1673ffffffffffffffffffffffffffffffffffffffff1681526020019081526020015f208190555080156111a6578273ffffffffffffffffffffffffffffffffffffffff168473ffffffffffffffffffffffffffffffffffffffff167f8c5be1e5ebec7d5bd14f71427d1e84f3dd0314c0f7b2291e5b200ac8c7c3b9258460405161119d9190611a0b565b60405180910390a35b50505050565b5f73ffffffffffffffffffffffffffffffffffffffff168373ffffffffffffffffffffffffffffffffffffffff16036111fc578060025f8282546111f09190611ff9565b925050819055506112ca565b5f805f8573ffffffffffffffffffffffffffffffffffffffff1673ffffffffffffffffffffffffffffffffffffffff1681526020019081526020015f2054905081811015611285578381836040517fe450d38c00000000000000000000000000000000000000000000000000000000815260040161127c93929190611f97565b60405180910390fd5b8181035f808673ffffffffffffffffffffffffffffffffffffffff1673ffffffffffffffffffffffffffffffffffffffff1681526020019081526020015f2081905550505b5f73ffffffffffffffffffffffffffffffffffffffff168273ffffffffffffffffffffffffffffffffffffffff1603611311578060025f828254039250508190555061135b565b805f808473ffffffffffffffffffffffffffffffffffffffff1673ffffffffffffffffffffffffffffffffffffffff1681526020019081526020015f205f82825401925050819055505b8173ffffffffffffffffffffffffffffffffffffffff168373ffffffffffffffffffffffffffffffffffffffff167fddf252ad1be2c89b69c2b068fc378daa952ba7f163c4a11628f55a4df523b3ef836040516113b89190611a0b565b60405180910390a3505050565b5f7f8b73c3c69bb8fe3d512ecc4cf759cc79239f7b179b0ffacaa9a75d522b39400f7f00000000000000000000000000000000000000000000000000000000000000007f0000000000000000000000000000000000000000000000000000000000000000463060405160200161143f95949392919061202c565b60405160208183030381529060405280519060200120905090565b606060ff5f1b83146114765761146f83611790565b9050611501565b81805461148290611e26565b80601f01602080910402602001604051908101604052809291908181526020018280546114ae90611e26565b80156114f95780601f106114d0576101008083540402835291602001916114f9565b820191905f5260205f20905b8154815290600101906020018083116114dc57829003601f168201915b505050505090505b92915050565b5f6040517f190100000000000000000000000000000000000000000000000000000000000081528360028201528260228201526042812091505092915050565b5f805f7f7fffffffffffffffffffffffffffffff5d576e7357a4501ddfe92f46681b20a0845f1c1115611583575f600385925092509250611624565b5f6001888888886040515f81526020016040526040516115a6949392919061207d565b6020604051602081039080840390855afa1580156115c6573d5f803e3d5ffd5b5050506020604051035190505f73ffffffffffffffffffffffffffffffffffffffff168173ffffffffffffffffffffffffffffffffffffffff1603611617575f60015f801b93509350935050611624565b805f805f1b935093509350505b9450945094915050565b5f6003811115611641576116406120c0565b5b826003811115611654576116536120c0565b5b031561178c576001600381111561166e5761166d6120c0565b5b826003811115611681576116806120c0565b5b036116b8576040517ff645eedf00000000000000000000000000000000000000000000000000000000815260040160405180910390fd5b600260038111156116cc576116cb6120c0565b5b8260038111156116df576116de6120c0565b5b0361172357805f1c6040517ffce698f700000000000000000000000000000000000000000000000000000000815260040161171a9190611a0b565b60405180910390fd5b600380811115611736576117356120c0565b5b826003811115611749576117486120c0565b5b0361178b57806040517fd78bce0c0000000000000000000000000000000000000000000000000000000081526004016117829190611ac0565b60405180910390fd5b5b5050565b60605f61179c83611802565b90505f602067ffffffffffffffff8111156117ba576117b9611e56565b5b6040519080825280601f01601f1916602001820160405280156117ec5781602001600182028036833780820191505090505b5090508181528360208201528092505050919050565b5f8060ff835f1c169050601f811115611847576040517fb3512b0c00000000000000000000000000000000000000000000000000000000815260040160405180910390fd5b80915050919050565b5f81519050919050565b5f82825260208201905092915050565b5f5b8381101561188757808201518184015260208101905061186c565b5f8484015250505050565b5f601f19601f8301169050919050565b5f6118ac82611850565b6118b6818561185a565b93506118c681856020860161186a565b6118cf81611892565b840191505092915050565b5f6020820190508181035f8301526118f281846118a2565b905092915050565b5f80fd5b5f73ffffffffffffffffffffffffffffffffffffffff82169050919050565b5f611927826118fe565b9050919050565b6119378161191d565b8114611941575f80fd5b50565b5f813590506119528161192e565b92915050565b5f819050919050565b61196a81611958565b8114611974575f80fd5b50565b5f8135905061198581611961565b92915050565b5f80604083850312156119a1576119a06118fa565b5b5f6119ae85828601611944565b92505060206119bf85828601611977565b9150509250929050565b5f8115159050919050565b6119dd816119c9565b82525050565b5f6020820190506119f65f8301846119d4565b92915050565b611a0581611958565b82525050565b5f602082019050611a1e5f8301846119fc565b92915050565b5f805f60608486031215611a3b57611a3a6118fa565b5b5f611a4886828701611944565b9350506020611a5986828701611944565b9250506040611a6a86828701611977565b9150509250925092565b5f60ff82169050919050565b611a8981611a74565b82525050565b5f602082019050611aa25f830184611a80565b92915050565b5f819050919050565b611aba81611aa8565b82525050565b5f602082019050611ad35f830184611ab1565b92915050565b5f60208284031215611aee57611aed6118fa565b5b5f611afb84828501611977565b91505092915050565b5f60208284031215611b1957611b186118fa565b5b5f611b2684828501611944565b91505092915050565b5f7fff0000000000000000000000000000000000000000000000000000000000000082169050919050565b611b6381611b2f565b82525050565b611b728161191d565b82525050565b5f81519050919050565b5f82825260208201905092915050565b5f819050602082019050919050565b611baa81611958565b82525050565b5f611bbb8383611ba1565b60208301905092915050565b5f602082019050919050565b5f611bdd82611b78565b611be78185611b82565b9350611bf283611b92565b805f5b83811015611c22578151611c098882611bb0565b9750611c1483611bc7565b925050600181019050611bf5565b5085935050505092915050565b5f60e082019050611c425f83018a611b5a565b8181036020830152611c5481896118a2565b90508181036040830152611c6881886118a2565b9050611c7760608301876119fc565b611c846080830186611b69565b611c9160a0830185611ab1565b81810360c0830152611ca38184611bd3565b905098975050505050505050565b5f602082019050611cc45f830184611b69565b92915050565b611cd381611a74565b8114611cdd575f80fd5b50565b5f81359050611cee81611cca565b92915050565b611cfd81611aa8565b8114611d07575f80fd5b50565b5f81359050611d1881611cf4565b92915050565b5f805f805f805f60e0888a031215611d3957611d386118fa565b5b5f611d468a828b01611944565b9750506020611d578a828b01611944565b9650506040611d688a828b01611977565b9550506060611d798a828b01611977565b9450506080611d8a8a828b01611ce0565b93505060a0611d9b8a828b01611d0a565b92505060c0611dac8a828b01611d0a565b91505092959891949750929550565b5f8060408385031215611dd157611dd06118fa565b5b5f611dde85828601611944565b9250506020611def85828601611944565b9150509250929050565b7f4e487b71000000000000000000000000000000000000000000000000000000005f52602260045260245ffd5b5f6002820490506001821680611e3d57607f821691505b602082108103611e5057611e4f611df9565b5b50919050565b7f4e487b71000000000000000000000000000000000000000000000000000000005f52604160045260245ffd5b5f60c082019050611e965f830189611ab1565b611ea36020830188611b69565b611eb06040830187611b69565b611ebd60608301866119fc565b611eca60808301856119fc565b611ed760a08301846119fc565b979650505050505050565b5f604082019050611ef55f830185611b69565b611f026020830184611b69565b9392505050565b7f496e73756666696369656e7420746f6b656e2062616c616e636520696e20636f5f8201527f6e74726163740000000000000000000000000000000000000000000000000000602082015250565b5f611f6360268361185a565b9150611f6e82611f09565b604082019050919050565b5f6020820190508181035f830152611f9081611f57565b9050919050565b5f606082019050611faa5f830186611b69565b611fb760208301856119fc565b611fc460408301846119fc565b949350505050565b7f4e487b71000000000000000000000000000000000000000000000000000000005f52601160045260245ffd5b5f61200382611958565b915061200e83611958565b925082820190508082111561202657612025611fcc565b5b92915050565b5f60a08201905061203f5f830188611ab1565b61204c6020830187611ab1565b6120596040830186611ab1565b61206660608301856119fc565b6120736080830184611b69565b9695505050505050565b5f6080820190506120905f830187611ab1565b61209d6020830186611a80565b6120aa6040830185611ab1565b6120b76060830184611ab1565b95945050505050565b7f4e487b71000000000000000000000000000000000000000000000000000000005f52602160045260245ffdfea2646970667358221220ff85a9202ba395f71890447b37c967fb42553960168c16434948f1571178538664736f6c63430008180033",
			"opcodes": "PUSH2 0x160 PUSH1 0x40 MSTORE CALLVALUE DUP1 ISZERO PUSH3 0x11 JUMPI PUSH0 DUP1 REVERT JUMPDEST POP PUSH1 0x40 MLOAD PUSH3 0x2FFB CODESIZE SUB DUP1 PUSH3 0x2FFB DUP4 CODECOPY DUP2 DUP2 ADD PUSH1 0x40 MSTORE DUP2 ADD SWAP1 PUSH3 0x37 SWAP2 SWAP1 PUSH3 0x78E JUMP JUMPDEST CALLER PUSH1 0x40 MLOAD DUP1 PUSH1 0x40 ADD PUSH1 0x40 MSTORE DUP1 PUSH1 0xB DUP2 MSTORE PUSH1 0x20 ADD PUSH32 0x5A7461636869546F6B656E000000000000000000000000000000000000000000 DUP2 MSTORE POP DUP1 PUSH1 0x40 MLOAD DUP1 PUSH1 0x40 ADD PUSH1 0x40 MSTORE DUP1 PUSH1 0x1 DUP2 MSTORE PUSH1 0x20 ADD PUSH32 0x3100000000000000000000000000000000000000000000000000000000000000 DUP2 MSTORE POP PUSH1 0x40 MLOAD DUP1 PUSH1 0x40 ADD PUSH1 0x40 MSTORE DUP1 PUSH1 0xB DUP2 MSTORE PUSH1 0x20 ADD PUSH32 0x5A7461636869546F6B656E000000000000000000000000000000000000000000 DUP2 MSTORE POP PUSH1 0x40 MLOAD DUP1 PUSH1 0x40 ADD PUSH1 0x40 MSTORE DUP1 PUSH1 0x4 DUP2 MSTORE PUSH1 0x20 ADD PUSH32 0x5A49544B00000000000000000000000000000000000000000000000000000000 DUP2 MSTORE POP DUP2 PUSH1 0x3 SWAP1 DUP2 PUSH3 0x122 SWAP2 SWAP1 PUSH3 0xA19 JUMP JUMPDEST POP DUP1 PUSH1 0x4 SWAP1 DUP2 PUSH3 0x134 SWAP2 SWAP1 PUSH3 0xA19 JUMP JUMPDEST POP POP POP PUSH3 0x14D PUSH1 0x5 DUP4 PUSH3 0x2BD PUSH1 0x20 SHL SWAP1 SWAP2 SWAP1 PUSH1 0x20 SHR JUMP JUMPDEST PUSH2 0x120 DUP2 DUP2 MSTORE POP POP PUSH3 0x16B PUSH1 0x6 DUP3 PUSH3 0x2BD PUSH1 0x20 SHL SWAP1 SWAP2 SWAP1 PUSH1 0x20 SHR JUMP JUMPDEST PUSH2 0x140 DUP2 DUP2 MSTORE POP POP DUP2 DUP1 MLOAD SWAP1 PUSH1 0x20 ADD KECCAK256 PUSH1 0xE0 DUP2 DUP2 MSTORE POP POP DUP1 DUP1 MLOAD SWAP1 PUSH1 0x20 ADD KECCAK256 PUSH2 0x100 DUP2 DUP2 MSTORE POP POP CHAINID PUSH1 0xA0 DUP2 DUP2 MSTORE POP POP PUSH3 0x1AA PUSH3 0x312 PUSH1 0x20 SHL PUSH1 0x20 SHR JUMP JUMPDEST PUSH1 0x80 DUP2 DUP2 MSTORE POP POP ADDRESS PUSH20 0xFFFFFFFFFFFFFFFFFFFFFFFFFFFFFFFFFFFFFFFF AND PUSH1 0xC0 DUP2 PUSH20 0xFFFFFFFFFFFFFFFFFFFFFFFFFFFFFFFFFFFFFFFF AND DUP2 MSTORE POP POP POP POP POP PUSH0 PUSH20 0xFFFFFFFFFFFFFFFFFFFFFFFFFFFFFFFFFFFFFFFF AND DUP2 PUSH20 0xFFFFFFFFFFFFFFFFFFFFFFFFFFFFFFFFFFFFFFFF AND SUB PUSH3 0x25B JUMPI PUSH0 PUSH1 0x40 MLOAD PUSH32 0x1E4FBDF700000000000000000000000000000000000000000000000000000000 DUP2 MSTORE PUSH1 0x4 ADD PUSH3 0x252 SWAP2 SWAP1 PUSH3 0xB40 JUMP JUMPDEST PUSH1 0x40 MLOAD DUP1 SWAP2 SUB SWAP1 REVERT JUMPDEST PUSH3 0x26C DUP2 PUSH3 0x36E PUSH1 0x20 SHL PUSH1 0x20 SHR JUMP JUMPDEST POP PUSH0 PUSH1 0x2 DUP3 PUSH3 0x27D SWAP2 SWAP1 PUSH3 0xBB5 JUMP JUMPDEST SWAP1 POP PUSH0 DUP2 DUP4 PUSH3 0x28E SWAP2 SWAP1 PUSH3 0xBEC JUMP JUMPDEST SWAP1 POP PUSH3 0x2A2 CALLER DUP4 PUSH3 0x431 PUSH1 0x20 SHL PUSH1 0x20 SHR JUMP JUMPDEST PUSH3 0x2B4 ADDRESS DUP3 PUSH3 0x431 PUSH1 0x20 SHL PUSH1 0x20 SHR JUMP JUMPDEST POP POP POP PUSH3 0xE86 JUMP JUMPDEST PUSH0 PUSH1 0x20 DUP4 MLOAD LT ISZERO PUSH3 0x2E2 JUMPI PUSH3 0x2DA DUP4 PUSH3 0x4BB PUSH1 0x20 SHL PUSH1 0x20 SHR JUMP JUMPDEST SWAP1 POP PUSH3 0x30C JUMP JUMPDEST DUP3 PUSH3 0x2F4 DUP4 PUSH3 0x525 PUSH1 0x20 SHL PUSH1 0x20 SHR JUMP JUMPDEST PUSH0 ADD SWAP1 DUP2 PUSH3 0x304 SWAP2 SWAP1 PUSH3 0xA19 JUMP JUMPDEST POP PUSH1 0xFF PUSH0 SHL SWAP1 POP JUMPDEST SWAP3 SWAP2 POP POP JUMP JUMPDEST PUSH0 PUSH32 0x8B73C3C69BB8FE3D512ECC4CF759CC79239F7B179B0FFACAA9A75D522B39400F PUSH1 0xE0 MLOAD PUSH2 0x100 MLOAD CHAINID ADDRESS PUSH1 0x40 MLOAD PUSH1 0x20 ADD PUSH3 0x353 SWAP6 SWAP5 SWAP4 SWAP3 SWAP2 SWAP1 PUSH3 0xC51 JUMP JUMPDEST PUSH1 0x40 MLOAD PUSH1 0x20 DUP2 DUP4 SUB SUB DUP2 MSTORE SWAP1 PUSH1 0x40 MSTORE DUP1 MLOAD SWAP1 PUSH1 0x20 ADD KECCAK256 SWAP1 POP SWAP1 JUMP JUMPDEST PUSH0 PUSH1 0x8 PUSH0 SWAP1 SLOAD SWAP1 PUSH2 0x100 EXP SWAP1 DIV PUSH20 0xFFFFFFFFFFFFFFFFFFFFFFFFFFFFFFFFFFFFFFFF AND SWAP1 POP DUP2 PUSH1 0x8 PUSH0 PUSH2 0x100 EXP DUP2 SLOAD DUP2 PUSH20 0xFFFFFFFFFFFFFFFFFFFFFFFFFFFFFFFFFFFFFFFF MUL NOT AND SWAP1 DUP4 PUSH20 0xFFFFFFFFFFFFFFFFFFFFFFFFFFFFFFFFFFFFFFFF AND MUL OR SWAP1 SSTORE POP DUP2 PUSH20 0xFFFFFFFFFFFFFFFFFFFFFFFFFFFFFFFFFFFFFFFF AND DUP2 PUSH20 0xFFFFFFFFFFFFFFFFFFFFFFFFFFFFFFFFFFFFFFFF AND PUSH32 0x8BE0079C531659141344CD1FD0A4F28419497F9722A3DAAFE3B4186F6B6457E0 PUSH1 0x40 MLOAD PUSH1 0x40 MLOAD DUP1 SWAP2 SUB SWAP1 LOG3 POP POP JUMP JUMPDEST PUSH0 PUSH20 0xFFFFFFFFFFFFFFFFFFFFFFFFFFFFFFFFFFFFFFFF AND DUP3 PUSH20 0xFFFFFFFFFFFFFFFFFFFFFFFFFFFFFFFFFFFFFFFF AND SUB PUSH3 0x4A4 JUMPI PUSH0 PUSH1 0x40 MLOAD PUSH32 0xEC442F0500000000000000000000000000000000000000000000000000000000 DUP2 MSTORE PUSH1 0x4 ADD PUSH3 0x49B SWAP2 SWAP1 PUSH3 0xB40 JUMP JUMPDEST PUSH1 0x40 MLOAD DUP1 SWAP2 SUB SWAP1 REVERT JUMPDEST PUSH3 0x4B7 PUSH0 DUP4 DUP4 PUSH3 0x52E PUSH1 0x20 SHL PUSH1 0x20 SHR JUMP JUMPDEST POP POP JUMP JUMPDEST PUSH0 DUP1 DUP3 SWAP1 POP PUSH1 0x1F DUP2 MLOAD GT ISZERO PUSH3 0x50A JUMPI DUP3 PUSH1 0x40 MLOAD PUSH32 0x305A27A900000000000000000000000000000000000000000000000000000000 DUP2 MSTORE PUSH1 0x4 ADD PUSH3 0x501 SWAP2 SWAP1 PUSH3 0xD36 JUMP JUMPDEST PUSH1 0x40 MLOAD DUP1 SWAP2 SUB SWAP1 REVERT JUMPDEST DUP1 MLOAD DUP2 PUSH3 0x518 SWAP1 PUSH3 0xD87 JUMP JUMPDEST PUSH0 SHR OR PUSH0 SHL SWAP2 POP POP SWAP2 SWAP1 POP JUMP JUMPDEST PUSH0 DUP2 SWAP1 POP SWAP2 SWAP1 POP JUMP JUMPDEST PUSH0 PUSH20 0xFFFFFFFFFFFFFFFFFFFFFFFFFFFFFFFFFFFFFFFF AND DUP4 PUSH20 0xFFFFFFFFFFFFFFFFFFFFFFFFFFFFFFFFFFFFFFFF AND SUB PUSH3 0x582 JUMPI DUP1 PUSH1 0x2 PUSH0 DUP3 DUP3 SLOAD PUSH3 0x575 SWAP2 SWAP1 PUSH3 0xDF6 JUMP JUMPDEST SWAP3 POP POP DUP2 SWAP1 SSTORE POP PUSH3 0x653 JUMP JUMPDEST PUSH0 DUP1 PUSH0 DUP6 PUSH20 0xFFFFFFFFFFFFFFFFFFFFFFFFFFFFFFFFFFFFFFFF AND PUSH20 0xFFFFFFFFFFFFFFFFFFFFFFFFFFFFFFFFFFFFFFFF AND DUP2 MSTORE PUSH1 0x20 ADD SWAP1 DUP2 MSTORE PUSH1 0x20 ADD PUSH0 KECCAK256 SLOAD SWAP1 POP DUP2 DUP2 LT ISZERO PUSH3 0x60E JUMPI DUP4 DUP2 DUP4 PUSH1 0x40 MLOAD PUSH32 0xE450D38C00000000000000000000000000000000000000000000000000000000 DUP2 MSTORE PUSH1 0x4 ADD PUSH3 0x605 SWAP4 SWAP3 SWAP2 SWAP1 PUSH3 0xE30 JUMP JUMPDEST PUSH1 0x40 MLOAD DUP1 SWAP2 SUB SWAP1 REVERT JUMPDEST DUP2 DUP2 SUB PUSH0 DUP1 DUP7 PUSH20 0xFFFFFFFFFFFFFFFFFFFFFFFFFFFFFFFFFFFFFFFF AND PUSH20 0xFFFFFFFFFFFFFFFFFFFFFFFFFFFFFFFFFFFFFFFF AND DUP2 MSTORE PUSH1 0x20 ADD SWAP1 DUP2 MSTORE PUSH1 0x20 ADD PUSH0 KECCAK256 DUP2 SWAP1 SSTORE POP POP JUMPDEST PUSH0 PUSH20 0xFFFFFFFFFFFFFFFFFFFFFFFFFFFFFFFFFFFFFFFF AND DUP3 PUSH20 0xFFFFFFFFFFFFFFFFFFFFFFFFFFFFFFFFFFFFFFFF AND SUB PUSH3 0x69C JUMPI DUP1 PUSH1 0x2 PUSH0 DUP3 DUP3 SLOAD SUB SWAP3 POP POP DUP2 SWAP1 SSTORE POP PUSH3 0x6E6 JUMP JUMPDEST DUP1 PUSH0 DUP1 DUP5 PUSH20 0xFFFFFFFFFFFFFFFFFFFFFFFFFFFFFFFFFFFFFFFF AND PUSH20 0xFFFFFFFFFFFFFFFFFFFFFFFFFFFFFFFFFFFFFFFF AND DUP2 MSTORE PUSH1 0x20 ADD SWAP1 DUP2 MSTORE PUSH1 0x20 ADD PUSH0 KECCAK256 PUSH0 DUP3 DUP3 SLOAD ADD SWAP3 POP POP DUP2 SWAP1 SSTORE POP JUMPDEST DUP2 PUSH20 0xFFFFFFFFFFFFFFFFFFFFFFFFFFFFFFFFFFFFFFFF AND DUP4 PUSH20 0xFFFFFFFFFFFFFFFFFFFFFFFFFFFFFFFFFFFFFFFF AND PUSH32 0xDDF252AD1BE2C89B69C2B068FC378DAA952BA7F163C4A11628F55A4DF523B3EF DUP4 PUSH1 0x40 MLOAD PUSH3 0x745 SWAP2 SWAP1 PUSH3 0xE6B JUMP JUMPDEST PUSH1 0x40 MLOAD DUP1 SWAP2 SUB SWAP1 LOG3 POP POP POP JUMP JUMPDEST PUSH0 DUP1 REVERT JUMPDEST PUSH0 DUP2 SWAP1 POP SWAP2 SWAP1 POP JUMP JUMPDEST PUSH3 0x76A DUP2 PUSH3 0x756 JUMP JUMPDEST DUP2 EQ PUSH3 0x775 JUMPI PUSH0 DUP1 REVERT JUMPDEST POP JUMP JUMPDEST PUSH0 DUP2 MLOAD SWAP1 POP PUSH3 0x788 DUP2 PUSH3 0x75F JUMP JUMPDEST SWAP3 SWAP2 POP POP JUMP JUMPDEST PUSH0 PUSH1 0x20 DUP3 DUP5 SUB SLT ISZERO PUSH3 0x7A6 JUMPI PUSH3 0x7A5 PUSH3 0x752 JUMP JUMPDEST JUMPDEST PUSH0 PUSH3 0x7B5 DUP5 DUP3 DUP6 ADD PUSH3 0x778 JUMP JUMPDEST SWAP2 POP POP SWAP3 SWAP2 POP POP JUMP JUMPDEST PUSH0 DUP2 MLOAD SWAP1 POP SWAP2 SWAP1 POP JUMP JUMPDEST PUSH32 0x4E487B7100000000000000000000000000000000000000000000000000000000 PUSH0 MSTORE PUSH1 0x41 PUSH1 0x4 MSTORE PUSH1 0x24 PUSH0 REVERT JUMPDEST PUSH32 0x4E487B7100000000000000000000000000000000000000000000000000000000 PUSH0 MSTORE PUSH1 0x22 PUSH1 0x4 MSTORE PUSH1 0x24 PUSH0 REVERT JUMPDEST PUSH0 PUSH1 0x2 DUP3 DIV SWAP1 POP PUSH1 0x1 DUP3 AND DUP1 PUSH3 0x83A JUMPI PUSH1 0x7F DUP3 AND SWAP2 POP JUMPDEST PUSH1 0x20 DUP3 LT DUP2 SUB PUSH3 0x850 JUMPI PUSH3 0x84F PUSH3 0x7F5 JUMP JUMPDEST JUMPDEST POP SWAP2 SWAP1 POP JUMP JUMPDEST PUSH0 DUP2 SWAP1 POP DUP2 PUSH0 MSTORE PUSH1 0x20 PUSH0 KECCAK256 SWAP1 POP SWAP2 SWAP1 POP JUMP JUMPDEST PUSH0 PUSH1 0x20 PUSH1 0x1F DUP4 ADD DIV SWAP1 POP SWAP2 SWAP1 POP JUMP JUMPDEST PUSH0 DUP3 DUP3 SHL SWAP1 POP SWAP3 SWAP2 POP POP JUMP JUMPDEST PUSH0 PUSH1 0x8 DUP4 MUL PUSH3 0x8B4 PUSH32 0xFFFFFFFFFFFFFFFFFFFFFFFFFFFFFFFFFFFFFFFFFFFFFFFFFFFFFFFFFFFFFFFF DUP3 PUSH3 0x877 JUMP JUMPDEST PUSH3 0x8C0 DUP7 DUP4 PUSH3 0x877 JUMP JUMPDEST SWAP6 POP DUP1 NOT DUP5 AND SWAP4 POP DUP1 DUP7 AND DUP5 OR SWAP3 POP POP POP SWAP4 SWAP3 POP POP POP JUMP JUMPDEST PUSH0 DUP2 SWAP1 POP SWAP2 SWAP1 POP JUMP JUMPDEST PUSH0 PUSH3 0x901 PUSH3 0x8FB PUSH3 0x8F5 DUP5 PUSH3 0x756 JUMP JUMPDEST PUSH3 0x8D8 JUMP JUMPDEST PUSH3 0x756 JUMP JUMPDEST SWAP1 POP SWAP2 SWAP1 POP JUMP JUMPDEST PUSH0 DUP2 SWAP1 POP SWAP2 SWAP1 POP JUMP JUMPDEST PUSH3 0x91C DUP4 PUSH3 0x8E1 JUMP JUMPDEST PUSH3 0x934 PUSH3 0x92B DUP3 PUSH3 0x908 JUMP JUMPDEST DUP5 DUP5 SLOAD PUSH3 0x883 JUMP JUMPDEST DUP3 SSTORE POP POP POP POP JUMP JUMPDEST PUSH0 SWAP1 JUMP JUMPDEST PUSH3 0x94A PUSH3 0x93C JUMP JUMPDEST PUSH3 0x957 DUP2 DUP5 DUP5 PUSH3 0x911 JUMP JUMPDEST POP POP POP JUMP JUMPDEST JUMPDEST DUP2 DUP2 LT ISZERO PUSH3 0x97E JUMPI PUSH3 0x972 PUSH0 DUP3 PUSH3 0x940 JUMP JUMPDEST PUSH1 0x1 DUP2 ADD SWAP1 POP PUSH3 0x95D JUMP JUMPDEST POP POP JUMP JUMPDEST PUSH1 0x1F DUP3 GT ISZERO PUSH3 0x9CD JUMPI PUSH3 0x997 DUP2 PUSH3 0x856 JUMP JUMPDEST PUSH3 0x9A2 DUP5 PUSH3 0x868 JUMP JUMPDEST DUP2 ADD PUSH1 0x20 DUP6 LT ISZERO PUSH3 0x9B2 JUMPI DUP2 SWAP1 POP JUMPDEST PUSH3 0x9CA PUSH3 0x9C1 DUP6 PUSH3 0x868 JUMP JUMPDEST DUP4 ADD DUP3 PUSH3 0x95C JUMP JUMPDEST POP POP JUMPDEST POP POP POP JUMP JUMPDEST PUSH0 DUP3 DUP3 SHR SWAP1 POP SWAP3 SWAP2 POP POP JUMP JUMPDEST PUSH0 PUSH3 0x9EF PUSH0 NOT DUP5 PUSH1 0x8 MUL PUSH3 0x9D2 JUMP JUMPDEST NOT DUP1 DUP4 AND SWAP2 POP POP SWAP3 SWAP2 POP POP JUMP JUMPDEST PUSH0 PUSH3 0xA09 DUP4 DUP4 PUSH3 0x9DE JUMP JUMPDEST SWAP2 POP DUP3 PUSH1 0x2 MUL DUP3 OR SWAP1 POP SWAP3 SWAP2 POP POP JUMP JUMPDEST PUSH3 0xA24 DUP3 PUSH3 0x7BE JUMP JUMPDEST PUSH8 0xFFFFFFFFFFFFFFFF DUP2 GT ISZERO PUSH3 0xA40 JUMPI PUSH3 0xA3F PUSH3 0x7C8 JUMP JUMPDEST JUMPDEST PUSH3 0xA4C DUP3 SLOAD PUSH3 0x822 JUMP JUMPDEST PUSH3 0xA59 DUP3 DUP3 DUP6 PUSH3 0x982 JUMP JUMPDEST PUSH0 PUSH1 0x20 SWAP1 POP PUSH1 0x1F DUP4 GT PUSH1 0x1 DUP2 EQ PUSH3 0xA8F JUMPI PUSH0 DUP5 ISZERO PUSH3 0xA7A JUMPI DUP3 DUP8 ADD MLOAD SWAP1 POP JUMPDEST PUSH3 0xA86 DUP6 DUP3 PUSH3 0x9FC JUMP JUMPDEST DUP7 SSTORE POP PUSH3 0xAF5 JUMP JUMPDEST PUSH1 0x1F NOT DUP5 AND PUSH3 0xA9F DUP7 PUSH3 0x856 JUMP JUMPDEST PUSH0 JUMPDEST DUP3 DUP2 LT ISZERO PUSH3 0xAC8 JUMPI DUP5 DUP10 ADD MLOAD DUP3 SSTORE PUSH1 0x1 DUP3 ADD SWAP2 POP PUSH1 0x20 DUP6 ADD SWAP5 POP PUSH1 0x20 DUP2 ADD SWAP1 POP PUSH3 0xAA1 JUMP JUMPDEST DUP7 DUP4 LT ISZERO PUSH3 0xAE8 JUMPI DUP5 DUP10 ADD MLOAD PUSH3 0xAE4 PUSH1 0x1F DUP10 AND DUP3 PUSH3 0x9DE JUMP JUMPDEST DUP4 SSTORE POP JUMPDEST PUSH1 0x1 PUSH1 0x2 DUP9 MUL ADD DUP9 SSTORE POP POP POP JUMPDEST POP POP POP POP POP POP JUMP JUMPDEST PUSH0 PUSH20 0xFFFFFFFFFFFFFFFFFFFFFFFFFFFFFFFFFFFFFFFF DUP3 AND SWAP1 POP SWAP2 SWAP1 POP JUMP JUMPDEST PUSH0 PUSH3 0xB28 DUP3 PUSH3 0xAFD JUMP JUMPDEST SWAP1 POP SWAP2 SWAP1 POP JUMP JUMPDEST PUSH3 0xB3A DUP2 PUSH3 0xB1C JUMP JUMPDEST DUP3 MSTORE POP POP JUMP JUMPDEST PUSH0 PUSH1 0x20 DUP3 ADD SWAP1 POP PUSH3 0xB55 PUSH0 DUP4 ADD DUP5 PUSH3 0xB2F JUMP JUMPDEST SWAP3 SWAP2 POP POP JUMP JUMPDEST PUSH32 0x4E487B7100000000000000000000000000000000000000000000000000000000 PUSH0 MSTORE PUSH1 0x12 PUSH1 0x4 MSTORE PUSH1 0x24 PUSH0 REVERT JUMPDEST PUSH32 0x4E487B7100000000000000000000000000000000000000000000000000000000 PUSH0 MSTORE PUSH1 0x11 PUSH1 0x4 MSTORE PUSH1 0x24 PUSH0 REVERT JUMPDEST PUSH0 PUSH3 0xBC1 DUP3 PUSH3 0x756 JUMP JUMPDEST SWAP2 POP PUSH3 0xBCE DUP4 PUSH3 0x756 JUMP JUMPDEST SWAP3 POP DUP3 PUSH3 0xBE1 JUMPI PUSH3 0xBE0 PUSH3 0xB5B JUMP JUMPDEST JUMPDEST DUP3 DUP3 DIV SWAP1 POP SWAP3 SWAP2 POP POP JUMP JUMPDEST PUSH0 PUSH3 0xBF8 DUP3 PUSH3 0x756 JUMP JUMPDEST SWAP2 POP PUSH3 0xC05 DUP4 PUSH3 0x756 JUMP JUMPDEST SWAP3 POP DUP3 DUP3 SUB SWAP1 POP DUP2 DUP2 GT ISZERO PUSH3 0xC20 JUMPI PUSH3 0xC1F PUSH3 0xB88 JUMP JUMPDEST JUMPDEST SWAP3 SWAP2 POP POP JUMP JUMPDEST PUSH0 DUP2 SWAP1 POP SWAP2 SWAP1 POP JUMP JUMPDEST PUSH3 0xC3A DUP2 PUSH3 0xC26 JUMP JUMPDEST DUP3 MSTORE POP POP JUMP JUMPDEST PUSH3 0xC4B DUP2 PUSH3 0x756 JUMP JUMPDEST DUP3 MSTORE POP POP JUMP JUMPDEST PUSH0 PUSH1 0xA0 DUP3 ADD SWAP1 POP PUSH3 0xC66 PUSH0 DUP4 ADD DUP9 PUSH3 0xC2F JUMP JUMPDEST PUSH3 0xC75 PUSH1 0x20 DUP4 ADD DUP8 PUSH3 0xC2F JUMP JUMPDEST PUSH3 0xC84 PUSH1 0x40 DUP4 ADD DUP7 PUSH3 0xC2F JUMP JUMPDEST PUSH3 0xC93 PUSH1 0x60 DUP4 ADD DUP6 PUSH3 0xC40 JUMP JUMPDEST PUSH3 0xCA2 PUSH1 0x80 DUP4 ADD DUP5 PUSH3 0xB2F JUMP JUMPDEST SWAP7 SWAP6 POP POP POP POP POP POP JUMP JUMPDEST PUSH0 DUP3 DUP3 MSTORE PUSH1 0x20 DUP3 ADD SWAP1 POP SWAP3 SWAP2 POP POP JUMP JUMPDEST PUSH0 JUMPDEST DUP4 DUP2 LT ISZERO PUSH3 0xCDB JUMPI DUP1 DUP3 ADD MLOAD DUP2 DUP5 ADD MSTORE PUSH1 0x20 DUP2 ADD SWAP1 POP PUSH3 0xCBE JUMP JUMPDEST PUSH0 DUP5 DUP5 ADD MSTORE POP POP POP POP JUMP JUMPDEST PUSH0 PUSH1 0x1F NOT PUSH1 0x1F DUP4 ADD AND SWAP1 POP SWAP2 SWAP1 POP JUMP JUMPDEST PUSH0 PUSH3 0xD02 DUP3 PUSH3 0x7BE JUMP JUMPDEST PUSH3 0xD0E DUP2 DUP6 PUSH3 0xCAC JUMP JUMPDEST SWAP4 POP PUSH3 0xD20 DUP2 DUP6 PUSH1 0x20 DUP7 ADD PUSH3 0xCBC JUMP JUMPDEST PUSH3 0xD2B DUP2 PUSH3 0xCE6 JUMP JUMPDEST DUP5 ADD SWAP2 POP POP SWAP3 SWAP2 POP POP JUMP JUMPDEST PUSH0 PUSH1 0x20 DUP3 ADD SWAP1 POP DUP2 DUP2 SUB PUSH0 DUP4 ADD MSTORE PUSH3 0xD50 DUP2 DUP5 PUSH3 0xCF6 JUMP JUMPDEST SWAP1 POP SWAP3 SWAP2 POP POP JUMP JUMPDEST PUSH0 DUP2 MLOAD SWAP1 POP SWAP2 SWAP1 POP JUMP JUMPDEST PUSH0 DUP2 SWAP1 POP PUSH1 0x20 DUP3 ADD SWAP1 POP SWAP2 SWAP1 POP JUMP JUMPDEST PUSH0 PUSH3 0xD7E DUP3 MLOAD PUSH3 0xC26 JUMP JUMPDEST DUP1 SWAP2 POP POP SWAP2 SWAP1 POP JUMP JUMPDEST PUSH0 PUSH3 0xD93 DUP3 PUSH3 0xD58 JUMP JUMPDEST DUP3 PUSH3 0xD9F DUP5 PUSH3 0xD62 JUMP JUMPDEST SWAP1 POP PUSH3 0xDAC DUP2 PUSH3 0xD71 JUMP JUMPDEST SWAP3 POP PUSH1 0x20 DUP3 LT ISZERO PUSH3 0xDEF JUMPI PUSH3 0xDEA PUSH32 0xFFFFFFFFFFFFFFFFFFFFFFFFFFFFFFFFFFFFFFFFFFFFFFFFFFFFFFFFFFFFFFFF DUP4 PUSH1 0x20 SUB PUSH1 0x8 MUL PUSH3 0x877 JUMP JUMPDEST DUP4 AND SWAP3 POP JUMPDEST POP POP SWAP2 SWAP1 POP JUMP JUMPDEST PUSH0 PUSH3 0xE02 DUP3 PUSH3 0x756 JUMP JUMPDEST SWAP2 POP PUSH3 0xE0F DUP4 PUSH3 0x756 JUMP JUMPDEST SWAP3 POP DUP3 DUP3 ADD SWAP1 POP DUP1 DUP3 GT ISZERO PUSH3 0xE2A JUMPI PUSH3 0xE29 PUSH3 0xB88 JUMP JUMPDEST JUMPDEST SWAP3 SWAP2 POP POP JUMP JUMPDEST PUSH0 PUSH1 0x60 DUP3 ADD SWAP1 POP PUSH3 0xE45 PUSH0 DUP4 ADD DUP7 PUSH3 0xB2F JUMP JUMPDEST PUSH3 0xE54 PUSH1 0x20 DUP4 ADD DUP6 PUSH3 0xC40 JUMP JUMPDEST PUSH3 0xE63 PUSH1 0x40 DUP4 ADD DUP5 PUSH3 0xC40 JUMP JUMPDEST SWAP5 SWAP4 POP POP POP POP JUMP JUMPDEST PUSH0 PUSH1 0x20 DUP3 ADD SWAP1 POP PUSH3 0xE80 PUSH0 DUP4 ADD DUP5 PUSH3 0xC40 JUMP JUMPDEST SWAP3 SWAP2 POP POP JUMP JUMPDEST PUSH1 0x80 MLOAD PUSH1 0xA0 MLOAD PUSH1 0xC0 MLOAD PUSH1 0xE0 MLOAD PUSH2 0x100 MLOAD PUSH2 0x120 MLOAD PUSH2 0x140 MLOAD PUSH2 0x2123 PUSH3 0xED8 PUSH0 CODECOPY PUSH0 PUSH2 0xF11 ADD MSTORE PUSH0 PUSH2 0xED6 ADD MSTORE PUSH0 PUSH2 0x140A ADD MSTORE PUSH0 PUSH2 0x13E9 ADD MSTORE PUSH0 PUSH2 0xB8C ADD MSTORE PUSH0 PUSH2 0xBE2 ADD MSTORE PUSH0 PUSH2 0xC0B ADD MSTORE PUSH2 0x2123 PUSH0 RETURN INVALID PUSH1 0x80 PUSH1 0x40 MSTORE CALLVALUE DUP1 ISZERO PUSH2 0xF JUMPI PUSH0 DUP1 REVERT JUMPDEST POP PUSH1 0x4 CALLDATASIZE LT PUSH2 0x135 JUMPI PUSH0 CALLDATALOAD PUSH1 0xE0 SHR DUP1 PUSH4 0x79CC6790 GT PUSH2 0xB6 JUMPI DUP1 PUSH4 0x95D89B41 GT PUSH2 0x7A JUMPI DUP1 PUSH4 0x95D89B41 EQ PUSH2 0x32F JUMPI DUP1 PUSH4 0xA9059CBB EQ PUSH2 0x34D JUMPI DUP1 PUSH4 0xD505ACCF EQ PUSH2 0x37D JUMPI DUP1 PUSH4 0xDD62ED3E EQ PUSH2 0x399 JUMPI DUP1 PUSH4 0xF2FDE38B EQ PUSH2 0x3C9 JUMPI DUP1 PUSH4 0xF5BF3FCF EQ PUSH2 0x3E5 JUMPI PUSH2 0x135 JUMP JUMPDEST DUP1 PUSH4 0x79CC6790 EQ PUSH2 0x283 JUMPI DUP1 PUSH4 0x7ECEBE00 EQ PUSH2 0x29F JUMPI DUP1 PUSH4 0x84B0196E EQ PUSH2 0x2CF JUMPI DUP1 PUSH4 0x8B7AFE2E EQ PUSH2 0x2F3 JUMPI DUP1 PUSH4 0x8DA5CB5B EQ PUSH2 0x311 JUMPI PUSH2 0x135 JUMP JUMPDEST DUP1 PUSH4 0x3644E515 GT PUSH2 0xFD JUMPI DUP1 PUSH4 0x3644E515 EQ PUSH2 0x1F3 JUMPI DUP1 PUSH4 0x40C10F19 EQ PUSH2 0x211 JUMPI DUP1 PUSH4 0x42966C68 EQ PUSH2 0x22D JUMPI DUP1 PUSH4 0x70A08231 EQ PUSH2 0x249 JUMPI DUP1 PUSH4 0x715018A6 EQ PUSH2 0x279 JUMPI PUSH2 0x135 JUMP JUMPDEST DUP1 PUSH4 0x6FDDE03 EQ PUSH2 0x139 JUMPI DUP1 PUSH4 0x95EA7B3 EQ PUSH2 0x157 JUMPI DUP1 PUSH4 0x18160DDD EQ PUSH2 0x187 JUMPI DUP1 PUSH4 0x23B872DD EQ PUSH2 0x1A5 JUMPI DUP1 PUSH4 0x313CE567 EQ PUSH2 0x1D5 JUMPI JUMPDEST PUSH0 DUP1 REVERT JUMPDEST PUSH2 0x141 PUSH2 0x401 JUMP JUMPDEST PUSH1 0x40 MLOAD PUSH2 0x14E SWAP2 SWAP1 PUSH2 0x18DA JUMP JUMPDEST PUSH1 0x40 MLOAD DUP1 SWAP2 SUB SWAP1 RETURN JUMPDEST PUSH2 0x171 PUSH1 0x4 DUP1 CALLDATASIZE SUB DUP2 ADD SWAP1 PUSH2 0x16C SWAP2 SWAP1 PUSH2 0x198B JUMP JUMPDEST PUSH2 0x491 JUMP JUMPDEST PUSH1 0x40 MLOAD PUSH2 0x17E SWAP2 SWAP1 PUSH2 0x19E3 JUMP JUMPDEST PUSH1 0x40 MLOAD DUP1 SWAP2 SUB SWAP1 RETURN JUMPDEST PUSH2 0x18F PUSH2 0x4B3 JUMP JUMPDEST PUSH1 0x40 MLOAD PUSH2 0x19C SWAP2 SWAP1 PUSH2 0x1A0B JUMP JUMPDEST PUSH1 0x40 MLOAD DUP1 SWAP2 SUB SWAP1 RETURN JUMPDEST PUSH2 0x1BF PUSH1 0x4 DUP1 CALLDATASIZE SUB DUP2 ADD SWAP1 PUSH2 0x1BA SWAP2 SWAP1 PUSH2 0x1A24 JUMP JUMPDEST PUSH2 0x4BC JUMP JUMPDEST PUSH1 0x40 MLOAD PUSH2 0x1CC SWAP2 SWAP1 PUSH2 0x19E3 JUMP JUMPDEST PUSH1 0x40 MLOAD DUP1 SWAP2 SUB SWAP1 RETURN JUMPDEST PUSH2 0x1DD PUSH2 0x4EA JUMP JUMPDEST PUSH1 0x40 MLOAD PUSH2 0x1EA SWAP2 SWAP1 PUSH2 0x1A8F JUMP JUMPDEST PUSH1 0x40 MLOAD DUP1 SWAP2 SUB SWAP1 RETURN JUMPDEST PUSH2 0x1FB PUSH2 0x4F2 JUMP JUMPDEST PUSH1 0x40 MLOAD PUSH2 0x208 SWAP2 SWAP1 PUSH2 0x1AC0 JUMP JUMPDEST PUSH1 0x40 MLOAD DUP1 SWAP2 SUB SWAP1 RETURN JUMPDEST PUSH2 0x22B PUSH1 0x4 DUP1 CALLDATASIZE SUB DUP2 ADD SWAP1 PUSH2 0x226 SWAP2 SWAP1 PUSH2 0x198B JUMP JUMPDEST PUSH2 0x500 JUMP JUMPDEST STOP JUMPDEST PUSH2 0x247 PUSH1 0x4 DUP1 CALLDATASIZE SUB DUP2 ADD SWAP1 PUSH2 0x242 SWAP2 SWAP1 PUSH2 0x1AD9 JUMP JUMPDEST PUSH2 0x516 JUMP JUMPDEST STOP JUMPDEST PUSH2 0x263 PUSH1 0x4 DUP1 CALLDATASIZE SUB DUP2 ADD SWAP1 PUSH2 0x25E SWAP2 SWAP1 PUSH2 0x1B04 JUMP JUMPDEST PUSH2 0x52A JUMP JUMPDEST PUSH1 0x40 MLOAD PUSH2 0x270 SWAP2 SWAP1 PUSH2 0x1A0B JUMP JUMPDEST PUSH1 0x40 MLOAD DUP1 SWAP2 SUB SWAP1 RETURN JUMPDEST PUSH2 0x281 PUSH2 0x56F JUMP JUMPDEST STOP JUMPDEST PUSH2 0x29D PUSH1 0x4 DUP1 CALLDATASIZE SUB DUP2 ADD SWAP1 PUSH2 0x298 SWAP2 SWAP1 PUSH2 0x198B JUMP JUMPDEST PUSH2 0x582 JUMP JUMPDEST STOP JUMPDEST PUSH2 0x2B9 PUSH1 0x4 DUP1 CALLDATASIZE SUB DUP2 ADD SWAP1 PUSH2 0x2B4 SWAP2 SWAP1 PUSH2 0x1B04 JUMP JUMPDEST PUSH2 0x5A2 JUMP JUMPDEST PUSH1 0x40 MLOAD PUSH2 0x2C6 SWAP2 SWAP1 PUSH2 0x1A0B JUMP JUMPDEST PUSH1 0x40 MLOAD DUP1 SWAP2 SUB SWAP1 RETURN JUMPDEST PUSH2 0x2D7 PUSH2 0x5B3 JUMP JUMPDEST PUSH1 0x40 MLOAD PUSH2 0x2EA SWAP8 SWAP7 SWAP6 SWAP5 SWAP4 SWAP3 SWAP2 SWAP1 PUSH2 0x1C2F JUMP JUMPDEST PUSH1 0x40 MLOAD DUP1 SWAP2 SUB SWAP1 RETURN JUMPDEST PUSH2 0x2FB PUSH2 0x658 JUMP JUMPDEST PUSH1 0x40 MLOAD PUSH2 0x308 SWAP2 SWAP1 PUSH2 0x1A0B JUMP JUMPDEST PUSH1 0x40 MLOAD DUP1 SWAP2 SUB SWAP1 RETURN JUMPDEST PUSH2 0x319 PUSH2 0x667 JUMP JUMPDEST PUSH1 0x40 MLOAD PUSH2 0x326 SWAP2 SWAP1 PUSH2 0x1CB1 JUMP JUMPDEST PUSH1 0x40 MLOAD DUP1 SWAP2 SUB SWAP1 RETURN JUMPDEST PUSH2 0x337 PUSH2 0x68F JUMP JUMPDEST PUSH1 0x40 MLOAD PUSH2 0x344 SWAP2 SWAP1 PUSH2 0x18DA JUMP JUMPDEST PUSH1 0x40 MLOAD DUP1 SWAP2 SUB SWAP1 RETURN JUMPDEST PUSH2 0x367 PUSH1 0x4 DUP1 CALLDATASIZE SUB DUP2 ADD SWAP1 PUSH2 0x362 SWAP2 SWAP1 PUSH2 0x198B JUMP JUMPDEST PUSH2 0x71F JUMP JUMPDEST PUSH1 0x40 MLOAD PUSH2 0x374 SWAP2 SWAP1 PUSH2 0x19E3 JUMP JUMPDEST PUSH1 0x40 MLOAD DUP1 SWAP2 SUB SWAP1 RETURN JUMPDEST PUSH2 0x397 PUSH1 0x4 DUP1 CALLDATASIZE SUB DUP2 ADD SWAP1 PUSH2 0x392 SWAP2 SWAP1 PUSH2 0x1D1E JUMP JUMPDEST PUSH2 0x741 JUMP JUMPDEST STOP JUMPDEST PUSH2 0x3B3 PUSH1 0x4 DUP1 CALLDATASIZE SUB DUP2 ADD SWAP1 PUSH2 0x3AE SWAP2 SWAP1 PUSH2 0x1DBB JUMP JUMPDEST PUSH2 0x886 JUMP JUMPDEST PUSH1 0x40 MLOAD PUSH2 0x3C0 SWAP2 SWAP1 PUSH2 0x1A0B JUMP JUMPDEST PUSH1 0x40 MLOAD DUP1 SWAP2 SUB SWAP1 RETURN JUMPDEST PUSH2 0x3E3 PUSH1 0x4 DUP1 CALLDATASIZE SUB DUP2 ADD SWAP1 PUSH2 0x3DE SWAP2 SWAP1 PUSH2 0x1B04 JUMP JUMPDEST PUSH2 0x908 JUMP JUMPDEST STOP JUMPDEST PUSH2 0x3FF PUSH1 0x4 DUP1 CALLDATASIZE SUB DUP2 ADD SWAP1 PUSH2 0x3FA SWAP2 SWAP1 PUSH2 0x198B JUMP JUMPDEST PUSH2 0x98C JUMP JUMPDEST STOP JUMPDEST PUSH1 0x60 PUSH1 0x3 DUP1 SLOAD PUSH2 0x410 SWAP1 PUSH2 0x1E26 JUMP JUMPDEST DUP1 PUSH1 0x1F ADD PUSH1 0x20 DUP1 SWAP2 DIV MUL PUSH1 0x20 ADD PUSH1 0x40 MLOAD SWAP1 DUP2 ADD PUSH1 0x40 MSTORE DUP1 SWAP3 SWAP2 SWAP1 DUP2 DUP2 MSTORE PUSH1 0x20 ADD DUP3 DUP1 SLOAD PUSH2 0x43C SWAP1 PUSH2 0x1E26 JUMP JUMPDEST DUP1 ISZERO PUSH2 0x487 JUMPI DUP1 PUSH1 0x1F LT PUSH2 0x45E JUMPI PUSH2 0x100 DUP1 DUP4 SLOAD DIV MUL DUP4 MSTORE SWAP2 PUSH1 0x20 ADD SWAP2 PUSH2 0x487 JUMP JUMPDEST DUP3 ADD SWAP2 SWAP1 PUSH0 MSTORE PUSH1 0x20 PUSH0 KECCAK256 SWAP1 JUMPDEST DUP2 SLOAD DUP2 MSTORE SWAP1 PUSH1 0x1 ADD SWAP1 PUSH1 0x20 ADD DUP1 DUP4 GT PUSH2 0x46A JUMPI DUP3 SWAP1 SUB PUSH1 0x1F AND DUP3 ADD SWAP2 JUMPDEST POP POP POP POP POP SWAP1 POP SWAP1 JUMP JUMPDEST PUSH0 DUP1 PUSH2 0x49B PUSH2 0x9EE JUMP JUMPDEST SWAP1 POP PUSH2 0x4A8 DUP2 DUP6 DUP6 PUSH2 0x9F5 JUMP JUMPDEST PUSH1 0x1 SWAP2 POP POP SWAP3 SWAP2 POP POP JUMP JUMPDEST PUSH0 PUSH1 0x2 SLOAD SWAP1 POP SWAP1 JUMP JUMPDEST PUSH0 DUP1 PUSH2 0x4C6 PUSH2 0x9EE JUMP JUMPDEST SWAP1 POP PUSH2 0x4D3 DUP6 DUP3 DUP6 PUSH2 0xA07 JUMP JUMPDEST PUSH2 0x4DE DUP6 DUP6 DUP6 PUSH2 0xA99 JUMP JUMPDEST PUSH1 0x1 SWAP2 POP POP SWAP4 SWAP3 POP POP POP JUMP JUMPDEST PUSH0 PUSH1 0x12 SWAP1 POP SWAP1 JUMP JUMPDEST PUSH0 PUSH2 0x4FB PUSH2 0xB89 JUMP JUMPDEST SWAP1 POP SWAP1 JUMP JUMPDEST PUSH2 0x508 PUSH2 0xC3F JUMP JUMPDEST PUSH2 0x512 DUP3 DUP3 PUSH2 0xCC6 JUMP JUMPDEST POP POP JUMP JUMPDEST PUSH2 0x527 PUSH2 0x521 PUSH2 0x9EE JUMP JUMPDEST DUP3 PUSH2 0xD45 JUMP JUMPDEST POP JUMP JUMPDEST PUSH0 DUP1 PUSH0 DUP4 PUSH20 0xFFFFFFFFFFFFFFFFFFFFFFFFFFFFFFFFFFFFFFFF AND PUSH20 0xFFFFFFFFFFFFFFFFFFFFFFFFFFFFFFFFFFFFFFFF AND DUP2 MSTORE PUSH1 0x20 ADD SWAP1 DUP2 MSTORE PUSH1 0x20 ADD PUSH0 KECCAK256 SLOAD SWAP1 POP SWAP2 SWAP1 POP JUMP JUMPDEST PUSH2 0x577 PUSH2 0xC3F JUMP JUMPDEST PUSH2 0x580 PUSH0 PUSH2 0xDC4 JUMP JUMPDEST JUMP JUMPDEST PUSH2 0x594 DUP3 PUSH2 0x58E PUSH2 0x9EE JUMP JUMPDEST DUP4 PUSH2 0xA07 JUMP JUMPDEST PUSH2 0x59E DUP3 DUP3 PUSH2 0xD45 JUMP JUMPDEST POP POP JUMP JUMPDEST PUSH0 PUSH2 0x5AC DUP3 PUSH2 0xE87 JUMP JUMPDEST SWAP1 POP SWAP2 SWAP1 POP JUMP JUMPDEST PUSH0 PUSH1 0x60 DUP1 PUSH0 DUP1 PUSH0 PUSH1 0x60 PUSH2 0x5C4 PUSH2 0xECD JUMP JUMPDEST PUSH2 0x5CC PUSH2 0xF08 JUMP JUMPDEST CHAINID ADDRESS PUSH0 DUP1 SHL PUSH0 PUSH8 0xFFFFFFFFFFFFFFFF DUP2 GT ISZERO PUSH2 0x5EB JUMPI PUSH2 0x5EA PUSH2 0x1E56 JUMP JUMPDEST JUMPDEST PUSH1 0x40 MLOAD SWAP1 DUP1 DUP3 MSTORE DUP1 PUSH1 0x20 MUL PUSH1 0x20 ADD DUP3 ADD PUSH1 0x40 MSTORE DUP1 ISZERO PUSH2 0x619 JUMPI DUP2 PUSH1 0x20 ADD PUSH1 0x20 DUP3 MUL DUP1 CALLDATASIZE DUP4 CALLDATACOPY DUP1 DUP3 ADD SWAP2 POP POP SWAP1 POP JUMPDEST POP PUSH32 0xF00000000000000000000000000000000000000000000000000000000000000 SWAP6 SWAP5 SWAP4 SWAP3 SWAP2 SWAP1 SWAP7 POP SWAP7 POP SWAP7 POP SWAP7 POP SWAP7 POP SWAP7 POP SWAP7 POP SWAP1 SWAP2 SWAP3 SWAP4 SWAP5 SWAP6 SWAP7 JUMP JUMPDEST PUSH0 PUSH2 0x662 ADDRESS PUSH2 0x52A JUMP JUMPDEST SWAP1 POP SWAP1 JUMP JUMPDEST PUSH0 PUSH1 0x8 PUSH0 SWAP1 SLOAD SWAP1 PUSH2 0x100 EXP SWAP1 DIV PUSH20 0xFFFFFFFFFFFFFFFFFFFFFFFFFFFFFFFFFFFFFFFF AND SWAP1 POP SWAP1 JUMP JUMPDEST PUSH1 0x60 PUSH1 0x4 DUP1 SLOAD PUSH2 0x69E SWAP1 PUSH2 0x1E26 JUMP JUMPDEST DUP1 PUSH1 0x1F ADD PUSH1 0x20 DUP1 SWAP2 DIV MUL PUSH1 0x20 ADD PUSH1 0x40 MLOAD SWAP1 DUP2 ADD PUSH1 0x40 MSTORE DUP1 SWAP3 SWAP2 SWAP1 DUP2 DUP2 MSTORE PUSH1 0x20 ADD DUP3 DUP1 SLOAD PUSH2 0x6CA SWAP1 PUSH2 0x1E26 JUMP JUMPDEST DUP1 ISZERO PUSH2 0x715 JUMPI DUP1 PUSH1 0x1F LT PUSH2 0x6EC JUMPI PUSH2 0x100 DUP1 DUP4 SLOAD DIV MUL DUP4 MSTORE SWAP2 PUSH1 0x20 ADD SWAP2 PUSH2 0x715 JUMP JUMPDEST DUP3 ADD SWAP2 SWAP1 PUSH0 MSTORE PUSH1 0x20 PUSH0 KECCAK256 SWAP1 JUMPDEST DUP2 SLOAD DUP2 MSTORE SWAP1 PUSH1 0x1 ADD SWAP1 PUSH1 0x20 ADD DUP1 DUP4 GT PUSH2 0x6F8 JUMPI DUP3 SWAP1 SUB PUSH1 0x1F AND DUP3 ADD SWAP2 JUMPDEST POP POP POP POP POP SWAP1 POP SWAP1 JUMP JUMPDEST PUSH0 DUP1 PUSH2 0x729 PUSH2 0x9EE JUMP JUMPDEST SWAP1 POP PUSH2 0x736 DUP2 DUP6 DUP6 PUSH2 0xA99 JUMP JUMPDEST PUSH1 0x1 SWAP2 POP POP SWAP3 SWAP2 POP POP JUMP JUMPDEST DUP4 TIMESTAMP GT ISZERO PUSH2 0x786 JUMPI DUP4 PUSH1 0x40 MLOAD PUSH32 0x6279130200000000000000000000000000000000000000000000000000000000 DUP2 MSTORE PUSH1 0x4 ADD PUSH2 0x77D SWAP2 SWAP1 PUSH2 0x1A0B JUMP JUMPDEST PUSH1 0x40 MLOAD DUP1 SWAP2 SUB SWAP1 REVERT JUMPDEST PUSH0 PUSH32 0x6E71EDAE12B1B97F4D1F60370FEF10105FA2FAAE0126114A169C64845D6126C9 DUP9 DUP9 DUP9 PUSH2 0x7B4 DUP13 PUSH2 0xF43 JUMP JUMPDEST DUP10 PUSH1 0x40 MLOAD PUSH1 0x20 ADD PUSH2 0x7CA SWAP7 SWAP6 SWAP5 SWAP4 SWAP3 SWAP2 SWAP1 PUSH2 0x1E83 JUMP JUMPDEST PUSH1 0x40 MLOAD PUSH1 0x20 DUP2 DUP4 SUB SUB DUP2 MSTORE SWAP1 PUSH1 0x40 MSTORE DUP1 MLOAD SWAP1 PUSH1 0x20 ADD KECCAK256 SWAP1 POP PUSH0 PUSH2 0x7EC DUP3 PUSH2 0xF96 JUMP JUMPDEST SWAP1 POP PUSH0 PUSH2 0x7FB DUP3 DUP8 DUP8 DUP8 PUSH2 0xFAF JUMP JUMPDEST SWAP1 POP DUP10 PUSH20 0xFFFFFFFFFFFFFFFFFFFFFFFFFFFFFFFFFFFFFFFF AND DUP2 PUSH20 0xFFFFFFFFFFFFFFFFFFFFFFFFFFFFFFFFFFFFFFFF AND EQ PUSH2 0x86F JUMPI DUP1 DUP11 PUSH1 0x40 MLOAD PUSH32 0x4B800E4600000000000000000000000000000000000000000000000000000000 DUP2 MSTORE PUSH1 0x4 ADD PUSH2 0x866 SWAP3 SWAP2 SWAP1 PUSH2 0x1EE2 JUMP JUMPDEST PUSH1 0x40 MLOAD DUP1 SWAP2 SUB SWAP1 REVERT JUMPDEST PUSH2 0x87A DUP11 DUP11 DUP11 PUSH2 0x9F5 JUMP JUMPDEST POP POP POP POP POP POP POP POP POP POP JUMP JUMPDEST PUSH0 PUSH1 0x1 PUSH0 DUP5 PUSH20 0xFFFFFFFFFFFFFFFFFFFFFFFFFFFFFFFFFFFFFFFF AND PUSH20 0xFFFFFFFFFFFFFFFFFFFFFFFFFFFFFFFFFFFFFFFF AND DUP2 MSTORE PUSH1 0x20 ADD SWAP1 DUP2 MSTORE PUSH1 0x20 ADD PUSH0 KECCAK256 PUSH0 DUP4 PUSH20 0xFFFFFFFFFFFFFFFFFFFFFFFFFFFFFFFFFFFFFFFF AND PUSH20 0xFFFFFFFFFFFFFFFFFFFFFFFFFFFFFFFFFFFFFFFF AND DUP2 MSTORE PUSH1 0x20 ADD SWAP1 DUP2 MSTORE PUSH1 0x20 ADD PUSH0 KECCAK256 SLOAD SWAP1 POP SWAP3 SWAP2 POP POP JUMP JUMPDEST PUSH2 0x910 PUSH2 0xC3F JUMP JUMPDEST PUSH0 PUSH20 0xFFFFFFFFFFFFFFFFFFFFFFFFFFFFFFFFFFFFFFFF AND DUP2 PUSH20 0xFFFFFFFFFFFFFFFFFFFFFFFFFFFFFFFFFFFFFFFF AND SUB PUSH2 0x980 JUMPI PUSH0 PUSH1 0x40 MLOAD PUSH32 0x1E4FBDF700000000000000000000000000000000000000000000000000000000 DUP2 MSTORE PUSH1 0x4 ADD PUSH2 0x977 SWAP2 SWAP1 PUSH2 0x1CB1 JUMP JUMPDEST PUSH1 0x40 MLOAD DUP1 SWAP2 SUB SWAP1 REVERT JUMPDEST PUSH2 0x989 DUP2 PUSH2 0xDC4 JUMP JUMPDEST POP JUMP JUMPDEST PUSH2 0x994 PUSH2 0xC3F JUMP JUMPDEST DUP1 PUSH2 0x99E ADDRESS PUSH2 0x52A JUMP JUMPDEST LT ISZERO PUSH2 0x9DF JUMPI PUSH1 0x40 MLOAD PUSH32 0x8C379A000000000000000000000000000000000000000000000000000000000 DUP2 MSTORE PUSH1 0x4 ADD PUSH2 0x9D6 SWAP1 PUSH2 0x1F79 JUMP JUMPDEST PUSH1 0x40 MLOAD DUP1 SWAP2 SUB SWAP1 REVERT JUMPDEST PUSH2 0x9EA ADDRESS DUP4 DUP4 PUSH2 0xA99 JUMP JUMPDEST POP POP JUMP JUMPDEST PUSH0 CALLER SWAP1 POP SWAP1 JUMP JUMPDEST PUSH2 0xA02 DUP4 DUP4 DUP4 PUSH1 0x1 PUSH2 0xFDD JUMP JUMPDEST POP POP POP JUMP JUMPDEST PUSH0 PUSH2 0xA12 DUP5 DUP5 PUSH2 0x886 JUMP JUMPDEST SWAP1 POP PUSH32 0xFFFFFFFFFFFFFFFFFFFFFFFFFFFFFFFFFFFFFFFFFFFFFFFFFFFFFFFFFFFFFFFF DUP2 EQ PUSH2 0xA93 JUMPI DUP2 DUP2 LT ISZERO PUSH2 0xA84 JUMPI DUP3 DUP2 DUP4 PUSH1 0x40 MLOAD PUSH32 0xFB8F41B200000000000000000000000000000000000000000000000000000000 DUP2 MSTORE PUSH1 0x4 ADD PUSH2 0xA7B SWAP4 SWAP3 SWAP2 SWAP1 PUSH2 0x1F97 JUMP JUMPDEST PUSH1 0x40 MLOAD DUP1 SWAP2 SUB SWAP1 REVERT JUMPDEST PUSH2 0xA92 DUP5 DUP5 DUP5 DUP5 SUB PUSH0 PUSH2 0xFDD JUMP JUMPDEST JUMPDEST POP POP POP POP JUMP JUMPDEST PUSH0 PUSH20 0xFFFFFFFFFFFFFFFFFFFFFFFFFFFFFFFFFFFFFFFF AND DUP4 PUSH20 0xFFFFFFFFFFFFFFFFFFFFFFFFFFFFFFFFFFFFFFFF AND SUB PUSH2 0xB09 JUMPI PUSH0 PUSH1 0x40 MLOAD PUSH32 0x96C6FD1E00000000000000000000000000000000000000000000000000000000 DUP2 MSTORE PUSH1 0x4 ADD PUSH2 0xB00 SWAP2 SWAP1 PUSH2 0x1CB1 JUMP JUMPDEST PUSH1 0x40 MLOAD DUP1 SWAP2 SUB SWAP1 REVERT JUMPDEST PUSH0 PUSH20 0xFFFFFFFFFFFFFFFFFFFFFFFFFFFFFFFFFFFFFFFF AND DUP3 PUSH20 0xFFFFFFFFFFFFFFFFFFFFFFFFFFFFFFFFFFFFFFFF AND SUB PUSH2 0xB79 JUMPI PUSH0 PUSH1 0x40 MLOAD PUSH32 0xEC442F0500000000000000000000000000000000000000000000000000000000 DUP2 MSTORE PUSH1 0x4 ADD PUSH2 0xB70 SWAP2 SWAP1 PUSH2 0x1CB1 JUMP JUMPDEST PUSH1 0x40 MLOAD DUP1 SWAP2 SUB SWAP1 REVERT JUMPDEST PUSH2 0xB84 DUP4 DUP4 DUP4 PUSH2 0x11AC JUMP JUMPDEST POP POP POP JUMP JUMPDEST PUSH0 PUSH32 0x0 PUSH20 0xFFFFFFFFFFFFFFFFFFFFFFFFFFFFFFFFFFFFFFFF AND ADDRESS PUSH20 0xFFFFFFFFFFFFFFFFFFFFFFFFFFFFFFFFFFFFFFFF AND EQ DUP1 ISZERO PUSH2 0xC04 JUMPI POP PUSH32 0x0 CHAINID EQ JUMPDEST ISZERO PUSH2 0xC31 JUMPI PUSH32 0x0 SWAP1 POP PUSH2 0xC3C JUMP JUMPDEST PUSH2 0xC39 PUSH2 0x13C5 JUMP JUMPDEST SWAP1 POP JUMPDEST SWAP1 JUMP JUMPDEST PUSH2 0xC47 PUSH2 0x9EE JUMP JUMPDEST PUSH20 0xFFFFFFFFFFFFFFFFFFFFFFFFFFFFFFFFFFFFFFFF AND PUSH2 0xC65 PUSH2 0x667 JUMP JUMPDEST PUSH20 0xFFFFFFFFFFFFFFFFFFFFFFFFFFFFFFFFFFFFFFFF AND EQ PUSH2 0xCC4 JUMPI PUSH2 0xC88 PUSH2 0x9EE JUMP JUMPDEST PUSH1 0x40 MLOAD PUSH32 0x118CDAA700000000000000000000000000000000000000000000000000000000 DUP2 MSTORE PUSH1 0x4 ADD PUSH2 0xCBB SWAP2 SWAP1 PUSH2 0x1CB1 JUMP JUMPDEST PUSH1 0x40 MLOAD DUP1 SWAP2 SUB SWAP1 REVERT JUMPDEST JUMP JUMPDEST PUSH0 PUSH20 0xFFFFFFFFFFFFFFFFFFFFFFFFFFFFFFFFFFFFFFFF AND DUP3 PUSH20 0xFFFFFFFFFFFFFFFFFFFFFFFFFFFFFFFFFFFFFFFF AND SUB PUSH2 0xD36 JUMPI PUSH0 PUSH1 0x40 MLOAD PUSH32 0xEC442F0500000000000000000000000000000000000000000000000000000000 DUP2 MSTORE PUSH1 0x4 ADD PUSH2 0xD2D SWAP2 SWAP1 PUSH2 0x1CB1 JUMP JUMPDEST PUSH1 0x40 MLOAD DUP1 SWAP2 SUB SWAP1 REVERT JUMPDEST PUSH2 0xD41 PUSH0 DUP4 DUP4 PUSH2 0x11AC JUMP JUMPDEST POP POP JUMP JUMPDEST PUSH0 PUSH20 0xFFFFFFFFFFFFFFFFFFFFFFFFFFFFFFFFFFFFFFFF AND DUP3 PUSH20 0xFFFFFFFFFFFFFFFFFFFFFFFFFFFFFFFFFFFFFFFF AND SUB PUSH2 0xDB5 JUMPI PUSH0 PUSH1 0x40 MLOAD PUSH32 0x96C6FD1E00000000000000000000000000000000000000000000000000000000 DUP2 MSTORE PUSH1 0x4 ADD PUSH2 0xDAC SWAP2 SWAP1 PUSH2 0x1CB1 JUMP JUMPDEST PUSH1 0x40 MLOAD DUP1 SWAP2 SUB SWAP1 REVERT JUMPDEST PUSH2 0xDC0 DUP3 PUSH0 DUP4 PUSH2 0x11AC JUMP JUMPDEST POP POP JUMP JUMPDEST PUSH0 PUSH1 0x8 PUSH0 SWAP1 SLOAD SWAP1 PUSH2 0x100 EXP SWAP1 DIV PUSH20 0xFFFFFFFFFFFFFFFFFFFFFFFFFFFFFFFFFFFFFFFF AND SWAP1 POP DUP2 PUSH1 0x8 PUSH0 PUSH2 0x100 EXP DUP2 SLOAD DUP2 PUSH20 0xFFFFFFFFFFFFFFFFFFFFFFFFFFFFFFFFFFFFFFFF MUL NOT AND SWAP1 DUP4 PUSH20 0xFFFFFFFFFFFFFFFFFFFFFFFFFFFFFFFFFFFFFFFF AND MUL OR SWAP1 SSTORE POP DUP2 PUSH20 0xFFFFFFFFFFFFFFFFFFFFFFFFFFFFFFFFFFFFFFFF AND DUP2 PUSH20 0xFFFFFFFFFFFFFFFFFFFFFFFFFFFFFFFFFFFFFFFF AND PUSH32 0x8BE0079C531659141344CD1FD0A4F28419497F9722A3DAAFE3B4186F6B6457E0 PUSH1 0x40 MLOAD PUSH1 0x40 MLOAD DUP1 SWAP2 SUB SWAP1 LOG3 POP POP JUMP JUMPDEST PUSH0 PUSH1 0x7 PUSH0 DUP4 PUSH20 0xFFFFFFFFFFFFFFFFFFFFFFFFFFFFFFFFFFFFFFFF AND PUSH20 0xFFFFFFFFFFFFFFFFFFFFFFFFFFFFFFFFFFFFFFFF AND DUP2 MSTORE PUSH1 0x20 ADD SWAP1 DUP2 MSTORE PUSH1 0x20 ADD PUSH0 KECCAK256 SLOAD SWAP1 POP SWAP2 SWAP1 POP JUMP JUMPDEST PUSH1 0x60 PUSH2 0xF03 PUSH1 0x5 PUSH32 0x0 PUSH2 0x145A SWAP1 SWAP2 SWAP1 PUSH4 0xFFFFFFFF AND JUMP JUMPDEST SWAP1 POP SWAP1 JUMP JUMPDEST PUSH1 0x60 PUSH2 0xF3E PUSH1 0x6 PUSH32 0x0 PUSH2 0x145A SWAP1 SWAP2 SWAP1 PUSH4 0xFFFFFFFF AND JUMP JUMPDEST SWAP1 POP SWAP1 JUMP JUMPDEST PUSH0 PUSH1 0x7 PUSH0 DUP4 PUSH20 0xFFFFFFFFFFFFFFFFFFFFFFFFFFFFFFFFFFFFFFFF AND PUSH20 0xFFFFFFFFFFFFFFFFFFFFFFFFFFFFFFFFFFFFFFFF AND DUP2 MSTORE PUSH1 0x20 ADD SWAP1 DUP2 MSTORE PUSH1 0x20 ADD PUSH0 KECCAK256 PUSH0 DUP2 SLOAD DUP1 SWAP3 SWAP2 SWAP1 PUSH1 0x1 ADD SWAP2 SWAP1 POP SSTORE SWAP1 POP SWAP2 SWAP1 POP JUMP JUMPDEST PUSH0 PUSH2 0xFA8 PUSH2 0xFA2 PUSH2 0xB89 JUMP JUMPDEST DUP4 PUSH2 0x1507 JUMP JUMPDEST SWAP1 POP SWAP2 SWAP1 POP JUMP JUMPDEST PUSH0 DUP1 PUSH0 DUP1 PUSH2 0xFBF DUP9 DUP9 DUP9 DUP9 PUSH2 0x1547 JUMP JUMPDEST SWAP3 POP SWAP3 POP SWAP3 POP PUSH2 0xFCF DUP3 DUP3 PUSH2 0x162E JUMP JUMPDEST DUP3 SWAP4 POP POP POP POP SWAP5 SWAP4 POP POP POP POP JUMP JUMPDEST PUSH0 PUSH20 0xFFFFFFFFFFFFFFFFFFFFFFFFFFFFFFFFFFFFFFFF AND DUP5 PUSH20 0xFFFFFFFFFFFFFFFFFFFFFFFFFFFFFFFFFFFFFFFF AND SUB PUSH2 0x104D JUMPI PUSH0 PUSH1 0x40 MLOAD PUSH32 0xE602DF0500000000000000000000000000000000000000000000000000000000 DUP2 MSTORE PUSH1 0x4 ADD PUSH2 0x1044 SWAP2 SWAP1 PUSH2 0x1CB1 JUMP JUMPDEST PUSH1 0x40 MLOAD DUP1 SWAP2 SUB SWAP1 REVERT JUMPDEST PUSH0 PUSH20 0xFFFFFFFFFFFFFFFFFFFFFFFFFFFFFFFFFFFFFFFF AND DUP4 PUSH20 0xFFFFFFFFFFFFFFFFFFFFFFFFFFFFFFFFFFFFFFFF AND SUB PUSH2 0x10BD JUMPI PUSH0 PUSH1 0x40 MLOAD PUSH32 0x94280D6200000000000000000000000000000000000000000000000000000000 DUP2 MSTORE PUSH1 0x4 ADD PUSH2 0x10B4 SWAP2 SWAP1 PUSH2 0x1CB1 JUMP JUMPDEST PUSH1 0x40 MLOAD DUP1 SWAP2 SUB SWAP1 REVERT JUMPDEST DUP2 PUSH1 0x1 PUSH0 DUP7 PUSH20 0xFFFFFFFFFFFFFFFFFFFFFFFFFFFFFFFFFFFFFFFF AND PUSH20 0xFFFFFFFFFFFFFFFFFFFFFFFFFFFFFFFFFFFFFFFF AND DUP2 MSTORE PUSH1 0x20 ADD SWAP1 DUP2 MSTORE PUSH1 0x20 ADD PUSH0 KECCAK256 PUSH0 DUP6 PUSH20 0xFFFFFFFFFFFFFFFFFFFFFFFFFFFFFFFFFFFFFFFF AND PUSH20 0xFFFFFFFFFFFFFFFFFFFFFFFFFFFFFFFFFFFFFFFF AND DUP2 MSTORE PUSH1 0x20 ADD SWAP1 DUP2 MSTORE PUSH1 0x20 ADD PUSH0 KECCAK256 DUP2 SWAP1 SSTORE POP DUP1 ISZERO PUSH2 0x11A6 JUMPI DUP3 PUSH20 0xFFFFFFFFFFFFFFFFFFFFFFFFFFFFFFFFFFFFFFFF AND DUP5 PUSH20 0xFFFFFFFFFFFFFFFFFFFFFFFFFFFFFFFFFFFFFFFF AND PUSH32 0x8C5BE1E5EBEC7D5BD14F71427D1E84F3DD0314C0F7B2291E5B200AC8C7C3B925 DUP5 PUSH1 0x40 MLOAD PUSH2 0x119D SWAP2 SWAP1 PUSH2 0x1A0B JUMP JUMPDEST PUSH1 0x40 MLOAD DUP1 SWAP2 SUB SWAP1 LOG3 JUMPDEST POP POP POP POP JUMP JUMPDEST PUSH0 PUSH20 0xFFFFFFFFFFFFFFFFFFFFFFFFFFFFFFFFFFFFFFFF AND DUP4 PUSH20 0xFFFFFFFFFFFFFFFFFFFFFFFFFFFFFFFFFFFFFFFF AND SUB PUSH2 0x11FC JUMPI DUP1 PUSH1 0x2 PUSH0 DUP3 DUP3 SLOAD PUSH2 0x11F0 SWAP2 SWAP1 PUSH2 0x1FF9 JUMP JUMPDEST SWAP3 POP POP DUP2 SWAP1 SSTORE POP PUSH2 0x12CA JUMP JUMPDEST PUSH0 DUP1 PUSH0 DUP6 PUSH20 0xFFFFFFFFFFFFFFFFFFFFFFFFFFFFFFFFFFFFFFFF AND PUSH20 0xFFFFFFFFFFFFFFFFFFFFFFFFFFFFFFFFFFFFFFFF AND DUP2 MSTORE PUSH1 0x20 ADD SWAP1 DUP2 MSTORE PUSH1 0x20 ADD PUSH0 KECCAK256 SLOAD SWAP1 POP DUP2 DUP2 LT ISZERO PUSH2 0x1285 JUMPI DUP4 DUP2 DUP4 PUSH1 0x40 MLOAD PUSH32 0xE450D38C00000000000000000000000000000000000000000000000000000000 DUP2 MSTORE PUSH1 0x4 ADD PUSH2 0x127C SWAP4 SWAP3 SWAP2 SWAP1 PUSH2 0x1F97 JUMP JUMPDEST PUSH1 0x40 MLOAD DUP1 SWAP2 SUB SWAP1 REVERT JUMPDEST DUP2 DUP2 SUB PUSH0 DUP1 DUP7 PUSH20 0xFFFFFFFFFFFFFFFFFFFFFFFFFFFFFFFFFFFFFFFF AND PUSH20 0xFFFFFFFFFFFFFFFFFFFFFFFFFFFFFFFFFFFFFFFF AND DUP2 MSTORE PUSH1 0x20 ADD SWAP1 DUP2 MSTORE PUSH1 0x20 ADD PUSH0 KECCAK256 DUP2 SWAP1 SSTORE POP POP JUMPDEST PUSH0 PUSH20 0xFFFFFFFFFFFFFFFFFFFFFFFFFFFFFFFFFFFFFFFF AND DUP3 PUSH20 0xFFFFFFFFFFFFFFFFFFFFFFFFFFFFFFFFFFFFFFFF AND SUB PUSH2 0x1311 JUMPI DUP1 PUSH1 0x2 PUSH0 DUP3 DUP3 SLOAD SUB SWAP3 POP POP DUP2 SWAP1 SSTORE POP PUSH2 0x135B JUMP JUMPDEST DUP1 PUSH0 DUP1 DUP5 PUSH20 0xFFFFFFFFFFFFFFFFFFFFFFFFFFFFFFFFFFFFFFFF AND PUSH20 0xFFFFFFFFFFFFFFFFFFFFFFFFFFFFFFFFFFFFFFFF AND DUP2 MSTORE PUSH1 0x20 ADD SWAP1 DUP2 MSTORE PUSH1 0x20 ADD PUSH0 KECCAK256 PUSH0 DUP3 DUP3 SLOAD ADD SWAP3 POP POP DUP2 SWAP1 SSTORE POP JUMPDEST DUP2 PUSH20 0xFFFFFFFFFFFFFFFFFFFFFFFFFFFFFFFFFFFFFFFF AND DUP4 PUSH20 0xFFFFFFFFFFFFFFFFFFFFFFFFFFFFFFFFFFFFFFFF AND PUSH32 0xDDF252AD1BE2C89B69C2B068FC378DAA952BA7F163C4A11628F55A4DF523B3EF DUP4 PUSH1 0x40 MLOAD PUSH2 0x13B8 SWAP2 SWAP1 PUSH2 0x1A0B JUMP JUMPDEST PUSH1 0x40 MLOAD DUP1 SWAP2 SUB SWAP1 LOG3 POP POP POP JUMP JUMPDEST PUSH0 PUSH32 0x8B73C3C69BB8FE3D512ECC4CF759CC79239F7B179B0FFACAA9A75D522B39400F PUSH32 0x0 PUSH32 0x0 CHAINID ADDRESS PUSH1 0x40 MLOAD PUSH1 0x20 ADD PUSH2 0x143F SWAP6 SWAP5 SWAP4 SWAP3 SWAP2 SWAP1 PUSH2 0x202C JUMP JUMPDEST PUSH1 0x40 MLOAD PUSH1 0x20 DUP2 DUP4 SUB SUB DUP2 MSTORE SWAP1 PUSH1 0x40 MSTORE DUP1 MLOAD SWAP1 PUSH1 0x20 ADD KECCAK256 SWAP1 POP SWAP1 JUMP JUMPDEST PUSH1 0x60 PUSH1 0xFF PUSH0 SHL DUP4 EQ PUSH2 0x1476 JUMPI PUSH2 0x146F DUP4 PUSH2 0x1790 JUMP JUMPDEST SWAP1 POP PUSH2 0x1501 JUMP JUMPDEST DUP2 DUP1 SLOAD PUSH2 0x1482 SWAP1 PUSH2 0x1E26 JUMP JUMPDEST DUP1 PUSH1 0x1F ADD PUSH1 0x20 DUP1 SWAP2 DIV MUL PUSH1 0x20 ADD PUSH1 0x40 MLOAD SWAP1 DUP2 ADD PUSH1 0x40 MSTORE DUP1 SWAP3 SWAP2 SWAP1 DUP2 DUP2 MSTORE PUSH1 0x20 ADD DUP3 DUP1 SLOAD PUSH2 0x14AE SWAP1 PUSH2 0x1E26 JUMP JUMPDEST DUP1 ISZERO PUSH2 0x14F9 JUMPI DUP1 PUSH1 0x1F LT PUSH2 0x14D0 JUMPI PUSH2 0x100 DUP1 DUP4 SLOAD DIV MUL DUP4 MSTORE SWAP2 PUSH1 0x20 ADD SWAP2 PUSH2 0x14F9 JUMP JUMPDEST DUP3 ADD SWAP2 SWAP1 PUSH0 MSTORE PUSH1 0x20 PUSH0 KECCAK256 SWAP1 JUMPDEST DUP2 SLOAD DUP2 MSTORE SWAP1 PUSH1 0x1 ADD SWAP1 PUSH1 0x20 ADD DUP1 DUP4 GT PUSH2 0x14DC JUMPI DUP3 SWAP1 SUB PUSH1 0x1F AND DUP3 ADD SWAP2 JUMPDEST POP POP POP POP POP SWAP1 POP JUMPDEST SWAP3 SWAP2 POP POP JUMP JUMPDEST PUSH0 PUSH1 0x40 MLOAD PUSH32 0x1901000000000000000000000000000000000000000000000000000000000000 DUP2 MSTORE DUP4 PUSH1 0x2 DUP3 ADD MSTORE DUP3 PUSH1 0x22 DUP3 ADD MSTORE PUSH1 0x42 DUP2 KECCAK256 SWAP2 POP POP SWAP3 SWAP2 POP POP JUMP JUMPDEST PUSH0 DUP1 PUSH0 PUSH32 0x7FFFFFFFFFFFFFFFFFFFFFFFFFFFFFFF5D576E7357A4501DDFE92F46681B20A0 DUP5 PUSH0 SHR GT ISZERO PUSH2 0x1583 JUMPI PUSH0 PUSH1 0x3 DUP6 SWAP3 POP SWAP3 POP SWAP3 POP PUSH2 0x1624 JUMP JUMPDEST PUSH0 PUSH1 0x1 DUP9 DUP9 DUP9 DUP9 PUSH1 0x40 MLOAD PUSH0 DUP2 MSTORE PUSH1 0x20 ADD PUSH1 0x40 MSTORE PUSH1 0x40 MLOAD PUSH2 0x15A6 SWAP5 SWAP4 SWAP3 SWAP2 SWAP1 PUSH2 0x207D JUMP JUMPDEST PUSH1 0x20 PUSH1 0x40 MLOAD PUSH1 0x20 DUP2 SUB SWAP1 DUP1 DUP5 SUB SWAP1 DUP6 GAS STATICCALL ISZERO DUP1 ISZERO PUSH2 0x15C6 JUMPI RETURNDATASIZE PUSH0 DUP1 RETURNDATACOPY RETURNDATASIZE PUSH0 REVERT JUMPDEST POP POP POP PUSH1 0x20 PUSH1 0x40 MLOAD SUB MLOAD SWAP1 POP PUSH0 PUSH20 0xFFFFFFFFFFFFFFFFFFFFFFFFFFFFFFFFFFFFFFFF AND DUP2 PUSH20 0xFFFFFFFFFFFFFFFFFFFFFFFFFFFFFFFFFFFFFFFF AND SUB PUSH2 0x1617 JUMPI PUSH0 PUSH1 0x1 PUSH0 DUP1 SHL SWAP4 POP SWAP4 POP SWAP4 POP POP PUSH2 0x1624 JUMP JUMPDEST DUP1 PUSH0 DUP1 PUSH0 SHL SWAP4 POP SWAP4 POP SWAP4 POP POP JUMPDEST SWAP5 POP SWAP5 POP SWAP5 SWAP2 POP POP JUMP JUMPDEST PUSH0 PUSH1 0x3 DUP2 GT ISZERO PUSH2 0x1641 JUMPI PUSH2 0x1640 PUSH2 0x20C0 JUMP JUMPDEST JUMPDEST DUP3 PUSH1 0x3 DUP2 GT ISZERO PUSH2 0x1654 JUMPI PUSH2 0x1653 PUSH2 0x20C0 JUMP JUMPDEST JUMPDEST SUB ISZERO PUSH2 0x178C JUMPI PUSH1 0x1 PUSH1 0x3 DUP2 GT ISZERO PUSH2 0x166E JUMPI PUSH2 0x166D PUSH2 0x20C0 JUMP JUMPDEST JUMPDEST DUP3 PUSH1 0x3 DUP2 GT ISZERO PUSH2 0x1681 JUMPI PUSH2 0x1680 PUSH2 0x20C0 JUMP JUMPDEST JUMPDEST SUB PUSH2 0x16B8 JUMPI PUSH1 0x40 MLOAD PUSH32 0xF645EEDF00000000000000000000000000000000000000000000000000000000 DUP2 MSTORE PUSH1 0x4 ADD PUSH1 0x40 MLOAD DUP1 SWAP2 SUB SWAP1 REVERT JUMPDEST PUSH1 0x2 PUSH1 0x3 DUP2 GT ISZERO PUSH2 0x16CC JUMPI PUSH2 0x16CB PUSH2 0x20C0 JUMP JUMPDEST JUMPDEST DUP3 PUSH1 0x3 DUP2 GT ISZERO PUSH2 0x16DF JUMPI PUSH2 0x16DE PUSH2 0x20C0 JUMP JUMPDEST JUMPDEST SUB PUSH2 0x1723 JUMPI DUP1 PUSH0 SHR PUSH1 0x40 MLOAD PUSH32 0xFCE698F700000000000000000000000000000000000000000000000000000000 DUP2 MSTORE PUSH1 0x4 ADD PUSH2 0x171A SWAP2 SWAP1 PUSH2 0x1A0B JUMP JUMPDEST PUSH1 0x40 MLOAD DUP1 SWAP2 SUB SWAP1 REVERT JUMPDEST PUSH1 0x3 DUP1 DUP2 GT ISZERO PUSH2 0x1736 JUMPI PUSH2 0x1735 PUSH2 0x20C0 JUMP JUMPDEST JUMPDEST DUP3 PUSH1 0x3 DUP2 GT ISZERO PUSH2 0x1749 JUMPI PUSH2 0x1748 PUSH2 0x20C0 JUMP JUMPDEST JUMPDEST SUB PUSH2 0x178B JUMPI DUP1 PUSH1 0x40 MLOAD PUSH32 0xD78BCE0C00000000000000000000000000000000000000000000000000000000 DUP2 MSTORE PUSH1 0x4 ADD PUSH2 0x1782 SWAP2 SWAP1 PUSH2 0x1AC0 JUMP JUMPDEST PUSH1 0x40 MLOAD DUP1 SWAP2 SUB SWAP1 REVERT JUMPDEST JUMPDEST POP POP JUMP JUMPDEST PUSH1 0x60 PUSH0 PUSH2 0x179C DUP4 PUSH2 0x1802 JUMP JUMPDEST SWAP1 POP PUSH0 PUSH1 0x20 PUSH8 0xFFFFFFFFFFFFFFFF DUP2 GT ISZERO PUSH2 0x17BA JUMPI PUSH2 0x17B9 PUSH2 0x1E56 JUMP JUMPDEST JUMPDEST PUSH1 0x40 MLOAD SWAP1 DUP1 DUP3 MSTORE DUP1 PUSH1 0x1F ADD PUSH1 0x1F NOT AND PUSH1 0x20 ADD DUP3 ADD PUSH1 0x40 MSTORE DUP1 ISZERO PUSH2 0x17EC JUMPI DUP2 PUSH1 0x20 ADD PUSH1 0x1 DUP3 MUL DUP1 CALLDATASIZE DUP4 CALLDATACOPY DUP1 DUP3 ADD SWAP2 POP POP SWAP1 POP JUMPDEST POP SWAP1 POP DUP2 DUP2 MSTORE DUP4 PUSH1 0x20 DUP3 ADD MSTORE DUP1 SWAP3 POP POP POP SWAP2 SWAP1 POP JUMP JUMPDEST PUSH0 DUP1 PUSH1 0xFF DUP4 PUSH0 SHR AND SWAP1 POP PUSH1 0x1F DUP2 GT ISZERO PUSH2 0x1847 JUMPI PUSH1 0x40 MLOAD PUSH32 0xB3512B0C00000000000000000000000000000000000000000000000000000000 DUP2 MSTORE PUSH1 0x4 ADD PUSH1 0x40 MLOAD DUP1 SWAP2 SUB SWAP1 REVERT JUMPDEST DUP1 SWAP2 POP POP SWAP2 SWAP1 POP JUMP JUMPDEST PUSH0 DUP2 MLOAD SWAP1 POP SWAP2 SWAP1 POP JUMP JUMPDEST PUSH0 DUP3 DUP3 MSTORE PUSH1 0x20 DUP3 ADD SWAP1 POP SWAP3 SWAP2 POP POP JUMP JUMPDEST PUSH0 JUMPDEST DUP4 DUP2 LT ISZERO PUSH2 0x1887 JUMPI DUP1 DUP3 ADD MLOAD DUP2 DUP5 ADD MSTORE PUSH1 0x20 DUP2 ADD SWAP1 POP PUSH2 0x186C JUMP JUMPDEST PUSH0 DUP5 DUP5 ADD MSTORE POP POP POP POP JUMP JUMPDEST PUSH0 PUSH1 0x1F NOT PUSH1 0x1F DUP4 ADD AND SWAP1 POP SWAP2 SWAP1 POP JUMP JUMPDEST PUSH0 PUSH2 0x18AC DUP3 PUSH2 0x1850 JUMP JUMPDEST PUSH2 0x18B6 DUP2 DUP6 PUSH2 0x185A JUMP JUMPDEST SWAP4 POP PUSH2 0x18C6 DUP2 DUP6 PUSH1 0x20 DUP7 ADD PUSH2 0x186A JUMP JUMPDEST PUSH2 0x18CF DUP2 PUSH2 0x1892 JUMP JUMPDEST DUP5 ADD SWAP2 POP POP SWAP3 SWAP2 POP POP JUMP JUMPDEST PUSH0 PUSH1 0x20 DUP3 ADD SWAP1 POP DUP2 DUP2 SUB PUSH0 DUP4 ADD MSTORE PUSH2 0x18F2 DUP2 DUP5 PUSH2 0x18A2 JUMP JUMPDEST SWAP1 POP SWAP3 SWAP2 POP POP JUMP JUMPDEST PUSH0 DUP1 REVERT JUMPDEST PUSH0 PUSH20 0xFFFFFFFFFFFFFFFFFFFFFFFFFFFFFFFFFFFFFFFF DUP3 AND SWAP1 POP SWAP2 SWAP1 POP JUMP JUMPDEST PUSH0 PUSH2 0x1927 DUP3 PUSH2 0x18FE JUMP JUMPDEST SWAP1 POP SWAP2 SWAP1 POP JUMP JUMPDEST PUSH2 0x1937 DUP2 PUSH2 0x191D JUMP JUMPDEST DUP2 EQ PUSH2 0x1941 JUMPI PUSH0 DUP1 REVERT JUMPDEST POP JUMP JUMPDEST PUSH0 DUP2 CALLDATALOAD SWAP1 POP PUSH2 0x1952 DUP2 PUSH2 0x192E JUMP JUMPDEST SWAP3 SWAP2 POP POP JUMP JUMPDEST PUSH0 DUP2 SWAP1 POP SWAP2 SWAP1 POP JUMP JUMPDEST PUSH2 0x196A DUP2 PUSH2 0x1958 JUMP JUMPDEST DUP2 EQ PUSH2 0x1974 JUMPI PUSH0 DUP1 REVERT JUMPDEST POP JUMP JUMPDEST PUSH0 DUP2 CALLDATALOAD SWAP1 POP PUSH2 0x1985 DUP2 PUSH2 0x1961 JUMP JUMPDEST SWAP3 SWAP2 POP POP JUMP JUMPDEST PUSH0 DUP1 PUSH1 0x40 DUP4 DUP6 SUB SLT ISZERO PUSH2 0x19A1 JUMPI PUSH2 0x19A0 PUSH2 0x18FA JUMP JUMPDEST JUMPDEST PUSH0 PUSH2 0x19AE DUP6 DUP3 DUP7 ADD PUSH2 0x1944 JUMP JUMPDEST SWAP3 POP POP PUSH1 0x20 PUSH2 0x19BF DUP6 DUP3 DUP7 ADD PUSH2 0x1977 JUMP JUMPDEST SWAP2 POP POP SWAP3 POP SWAP3 SWAP1 POP JUMP JUMPDEST PUSH0 DUP2 ISZERO ISZERO SWAP1 POP SWAP2 SWAP1 POP JUMP JUMPDEST PUSH2 0x19DD DUP2 PUSH2 0x19C9 JUMP JUMPDEST DUP3 MSTORE POP POP JUMP JUMPDEST PUSH0 PUSH1 0x20 DUP3 ADD SWAP1 POP PUSH2 0x19F6 PUSH0 DUP4 ADD DUP5 PUSH2 0x19D4 JUMP JUMPDEST SWAP3 SWAP2 POP POP JUMP JUMPDEST PUSH2 0x1A05 DUP2 PUSH2 0x1958 JUMP JUMPDEST DUP3 MSTORE POP POP JUMP JUMPDEST PUSH0 PUSH1 0x20 DUP3 ADD SWAP1 POP PUSH2 0x1A1E PUSH0 DUP4 ADD DUP5 PUSH2 0x19FC JUMP JUMPDEST SWAP3 SWAP2 POP POP JUMP JUMPDEST PUSH0 DUP1 PUSH0 PUSH1 0x60 DUP5 DUP7 SUB SLT ISZERO PUSH2 0x1A3B JUMPI PUSH2 0x1A3A PUSH2 0x18FA JUMP JUMPDEST JUMPDEST PUSH0 PUSH2 0x1A48 DUP7 DUP3 DUP8 ADD PUSH2 0x1944 JUMP JUMPDEST SWAP4 POP POP PUSH1 0x20 PUSH2 0x1A59 DUP7 DUP3 DUP8 ADD PUSH2 0x1944 JUMP JUMPDEST SWAP3 POP POP PUSH1 0x40 PUSH2 0x1A6A DUP7 DUP3 DUP8 ADD PUSH2 0x1977 JUMP JUMPDEST SWAP2 POP POP SWAP3 POP SWAP3 POP SWAP3 JUMP JUMPDEST PUSH0 PUSH1 0xFF DUP3 AND SWAP1 POP SWAP2 SWAP1 POP JUMP JUMPDEST PUSH2 0x1A89 DUP2 PUSH2 0x1A74 JUMP JUMPDEST DUP3 MSTORE POP POP JUMP JUMPDEST PUSH0 PUSH1 0x20 DUP3 ADD SWAP1 POP PUSH2 0x1AA2 PUSH0 DUP4 ADD DUP5 PUSH2 0x1A80 JUMP JUMPDEST SWAP3 SWAP2 POP POP JUMP JUMPDEST PUSH0 DUP2 SWAP1 POP SWAP2 SWAP1 POP JUMP JUMPDEST PUSH2 0x1ABA DUP2 PUSH2 0x1AA8 JUMP JUMPDEST DUP3 MSTORE POP POP JUMP JUMPDEST PUSH0 PUSH1 0x20 DUP3 ADD SWAP1 POP PUSH2 0x1AD3 PUSH0 DUP4 ADD DUP5 PUSH2 0x1AB1 JUMP JUMPDEST SWAP3 SWAP2 POP POP JUMP JUMPDEST PUSH0 PUSH1 0x20 DUP3 DUP5 SUB SLT ISZERO PUSH2 0x1AEE JUMPI PUSH2 0x1AED PUSH2 0x18FA JUMP JUMPDEST JUMPDEST PUSH0 PUSH2 0x1AFB DUP5 DUP3 DUP6 ADD PUSH2 0x1977 JUMP JUMPDEST SWAP2 POP POP SWAP3 SWAP2 POP POP JUMP JUMPDEST PUSH0 PUSH1 0x20 DUP3 DUP5 SUB SLT ISZERO PUSH2 0x1B19 JUMPI PUSH2 0x1B18 PUSH2 0x18FA JUMP JUMPDEST JUMPDEST PUSH0 PUSH2 0x1B26 DUP5 DUP3 DUP6 ADD PUSH2 0x1944 JUMP JUMPDEST SWAP2 POP POP SWAP3 SWAP2 POP POP JUMP JUMPDEST PUSH0 PUSH32 0xFF00000000000000000000000000000000000000000000000000000000000000 DUP3 AND SWAP1 POP SWAP2 SWAP1 POP JUMP JUMPDEST PUSH2 0x1B63 DUP2 PUSH2 0x1B2F JUMP JUMPDEST DUP3 MSTORE POP POP JUMP JUMPDEST PUSH2 0x1B72 DUP2 PUSH2 0x191D JUMP JUMPDEST DUP3 MSTORE POP POP JUMP JUMPDEST PUSH0 DUP2 MLOAD SWAP1 POP SWAP2 SWAP1 POP JUMP JUMPDEST PUSH0 DUP3 DUP3 MSTORE PUSH1 0x20 DUP3 ADD SWAP1 POP SWAP3 SWAP2 POP POP JUMP JUMPDEST PUSH0 DUP2 SWAP1 POP PUSH1 0x20 DUP3 ADD SWAP1 POP SWAP2 SWAP1 POP JUMP JUMPDEST PUSH2 0x1BAA DUP2 PUSH2 0x1958 JUMP JUMPDEST DUP3 MSTORE POP POP JUMP JUMPDEST PUSH0 PUSH2 0x1BBB DUP4 DUP4 PUSH2 0x1BA1 JUMP JUMPDEST PUSH1 0x20 DUP4 ADD SWAP1 POP SWAP3 SWAP2 POP POP JUMP JUMPDEST PUSH0 PUSH1 0x20 DUP3 ADD SWAP1 POP SWAP2 SWAP1 POP JUMP JUMPDEST PUSH0 PUSH2 0x1BDD DUP3 PUSH2 0x1B78 JUMP JUMPDEST PUSH2 0x1BE7 DUP2 DUP6 PUSH2 0x1B82 JUMP JUMPDEST SWAP4 POP PUSH2 0x1BF2 DUP4 PUSH2 0x1B92 JUMP JUMPDEST DUP1 PUSH0 JUMPDEST DUP4 DUP2 LT ISZERO PUSH2 0x1C22 JUMPI DUP2 MLOAD PUSH2 0x1C09 DUP9 DUP3 PUSH2 0x1BB0 JUMP JUMPDEST SWAP8 POP PUSH2 0x1C14 DUP4 PUSH2 0x1BC7 JUMP JUMPDEST SWAP3 POP POP PUSH1 0x1 DUP2 ADD SWAP1 POP PUSH2 0x1BF5 JUMP JUMPDEST POP DUP6 SWAP4 POP POP POP POP SWAP3 SWAP2 POP POP JUMP JUMPDEST PUSH0 PUSH1 0xE0 DUP3 ADD SWAP1 POP PUSH2 0x1C42 PUSH0 DUP4 ADD DUP11 PUSH2 0x1B5A JUMP JUMPDEST DUP2 DUP2 SUB PUSH1 0x20 DUP4 ADD MSTORE PUSH2 0x1C54 DUP2 DUP10 PUSH2 0x18A2 JUMP JUMPDEST SWAP1 POP DUP2 DUP2 SUB PUSH1 0x40 DUP4 ADD MSTORE PUSH2 0x1C68 DUP2 DUP9 PUSH2 0x18A2 JUMP JUMPDEST SWAP1 POP PUSH2 0x1C77 PUSH1 0x60 DUP4 ADD DUP8 PUSH2 0x19FC JUMP JUMPDEST PUSH2 0x1C84 PUSH1 0x80 DUP4 ADD DUP7 PUSH2 0x1B69 JUMP JUMPDEST PUSH2 0x1C91 PUSH1 0xA0 DUP4 ADD DUP6 PUSH2 0x1AB1 JUMP JUMPDEST DUP2 DUP2 SUB PUSH1 0xC0 DUP4 ADD MSTORE PUSH2 0x1CA3 DUP2 DUP5 PUSH2 0x1BD3 JUMP JUMPDEST SWAP1 POP SWAP9 SWAP8 POP POP POP POP POP POP POP POP JUMP JUMPDEST PUSH0 PUSH1 0x20 DUP3 ADD SWAP1 POP PUSH2 0x1CC4 PUSH0 DUP4 ADD DUP5 PUSH2 0x1B69 JUMP JUMPDEST SWAP3 SWAP2 POP POP JUMP JUMPDEST PUSH2 0x1CD3 DUP2 PUSH2 0x1A74 JUMP JUMPDEST DUP2 EQ PUSH2 0x1CDD JUMPI PUSH0 DUP1 REVERT JUMPDEST POP JUMP JUMPDEST PUSH0 DUP2 CALLDATALOAD SWAP1 POP PUSH2 0x1CEE DUP2 PUSH2 0x1CCA JUMP JUMPDEST SWAP3 SWAP2 POP POP JUMP JUMPDEST PUSH2 0x1CFD DUP2 PUSH2 0x1AA8 JUMP JUMPDEST DUP2 EQ PUSH2 0x1D07 JUMPI PUSH0 DUP1 REVERT JUMPDEST POP JUMP JUMPDEST PUSH0 DUP2 CALLDATALOAD SWAP1 POP PUSH2 0x1D18 DUP2 PUSH2 0x1CF4 JUMP JUMPDEST SWAP3 SWAP2 POP POP JUMP JUMPDEST PUSH0 DUP1 PUSH0 DUP1 PUSH0 DUP1 PUSH0 PUSH1 0xE0 DUP9 DUP11 SUB SLT ISZERO PUSH2 0x1D39 JUMPI PUSH2 0x1D38 PUSH2 0x18FA JUMP JUMPDEST JUMPDEST PUSH0 PUSH2 0x1D46 DUP11 DUP3 DUP12 ADD PUSH2 0x1944 JUMP JUMPDEST SWAP8 POP POP PUSH1 0x20 PUSH2 0x1D57 DUP11 DUP3 DUP12 ADD PUSH2 0x1944 JUMP JUMPDEST SWAP7 POP POP PUSH1 0x40 PUSH2 0x1D68 DUP11 DUP3 DUP12 ADD PUSH2 0x1977 JUMP JUMPDEST SWAP6 POP POP PUSH1 0x60 PUSH2 0x1D79 DUP11 DUP3 DUP12 ADD PUSH2 0x1977 JUMP JUMPDEST SWAP5 POP POP PUSH1 0x80 PUSH2 0x1D8A DUP11 DUP3 DUP12 ADD PUSH2 0x1CE0 JUMP JUMPDEST SWAP4 POP POP PUSH1 0xA0 PUSH2 0x1D9B DUP11 DUP3 DUP12 ADD PUSH2 0x1D0A JUMP JUMPDEST SWAP3 POP POP PUSH1 0xC0 PUSH2 0x1DAC DUP11 DUP3 DUP12 ADD PUSH2 0x1D0A JUMP JUMPDEST SWAP2 POP POP SWAP3 SWAP6 SWAP9 SWAP2 SWAP5 SWAP8 POP SWAP3 SWAP6 POP JUMP JUMPDEST PUSH0 DUP1 PUSH1 0x40 DUP4 DUP6 SUB SLT ISZERO PUSH2 0x1DD1 JUMPI PUSH2 0x1DD0 PUSH2 0x18FA JUMP JUMPDEST JUMPDEST PUSH0 PUSH2 0x1DDE DUP6 DUP3 DUP7 ADD PUSH2 0x1944 JUMP JUMPDEST SWAP3 POP POP PUSH1 0x20 PUSH2 0x1DEF DUP6 DUP3 DUP7 ADD PUSH2 0x1944 JUMP JUMPDEST SWAP2 POP POP SWAP3 POP SWAP3 SWAP1 POP JUMP JUMPDEST PUSH32 0x4E487B7100000000000000000000000000000000000000000000000000000000 PUSH0 MSTORE PUSH1 0x22 PUSH1 0x4 MSTORE PUSH1 0x24 PUSH0 REVERT JUMPDEST PUSH0 PUSH1 0x2 DUP3 DIV SWAP1 POP PUSH1 0x1 DUP3 AND DUP1 PUSH2 0x1E3D JUMPI PUSH1 0x7F DUP3 AND SWAP2 POP JUMPDEST PUSH1 0x20 DUP3 LT DUP2 SUB PUSH2 0x1E50 JUMPI PUSH2 0x1E4F PUSH2 0x1DF9 JUMP JUMPDEST JUMPDEST POP SWAP2 SWAP1 POP JUMP JUMPDEST PUSH32 0x4E487B7100000000000000000000000000000000000000000000000000000000 PUSH0 MSTORE PUSH1 0x41 PUSH1 0x4 MSTORE PUSH1 0x24 PUSH0 REVERT JUMPDEST PUSH0 PUSH1 0xC0 DUP3 ADD SWAP1 POP PUSH2 0x1E96 PUSH0 DUP4 ADD DUP10 PUSH2 0x1AB1 JUMP JUMPDEST PUSH2 0x1EA3 PUSH1 0x20 DUP4 ADD DUP9 PUSH2 0x1B69 JUMP JUMPDEST PUSH2 0x1EB0 PUSH1 0x40 DUP4 ADD DUP8 PUSH2 0x1B69 JUMP JUMPDEST PUSH2 0x1EBD PUSH1 0x60 DUP4 ADD DUP7 PUSH2 0x19FC JUMP JUMPDEST PUSH2 0x1ECA PUSH1 0x80 DUP4 ADD DUP6 PUSH2 0x19FC JUMP JUMPDEST PUSH2 0x1ED7 PUSH1 0xA0 DUP4 ADD DUP5 PUSH2 0x19FC JUMP JUMPDEST SWAP8 SWAP7 POP POP POP POP POP POP POP JUMP JUMPDEST PUSH0 PUSH1 0x40 DUP3 ADD SWAP1 POP PUSH2 0x1EF5 PUSH0 DUP4 ADD DUP6 PUSH2 0x1B69 JUMP JUMPDEST PUSH2 0x1F02 PUSH1 0x20 DUP4 ADD DUP5 PUSH2 0x1B69 JUMP JUMPDEST SWAP4 SWAP3 POP POP POP JUMP JUMPDEST PUSH32 0x496E73756666696369656E7420746F6B656E2062616C616E636520696E20636F PUSH0 DUP3 ADD MSTORE PUSH32 0x6E74726163740000000000000000000000000000000000000000000000000000 PUSH1 0x20 DUP3 ADD MSTORE POP JUMP JUMPDEST PUSH0 PUSH2 0x1F63 PUSH1 0x26 DUP4 PUSH2 0x185A JUMP JUMPDEST SWAP2 POP PUSH2 0x1F6E DUP3 PUSH2 0x1F09 JUMP JUMPDEST PUSH1 0x40 DUP3 ADD SWAP1 POP SWAP2 SWAP1 POP JUMP JUMPDEST PUSH0 PUSH1 0x20 DUP3 ADD SWAP1 POP DUP2 DUP2 SUB PUSH0 DUP4 ADD MSTORE PUSH2 0x1F90 DUP2 PUSH2 0x1F57 JUMP JUMPDEST SWAP1 POP SWAP2 SWAP1 POP JUMP JUMPDEST PUSH0 PUSH1 0x60 DUP3 ADD SWAP1 POP PUSH2 0x1FAA PUSH0 DUP4 ADD DUP7 PUSH2 0x1B69 JUMP JUMPDEST PUSH2 0x1FB7 PUSH1 0x20 DUP4 ADD DUP6 PUSH2 0x19FC JUMP JUMPDEST PUSH2 0x1FC4 PUSH1 0x40 DUP4 ADD DUP5 PUSH2 0x19FC JUMP JUMPDEST SWAP5 SWAP4 POP POP POP POP JUMP JUMPDEST PUSH32 0x4E487B7100000000000000000000000000000000000000000000000000000000 PUSH0 MSTORE PUSH1 0x11 PUSH1 0x4 MSTORE PUSH1 0x24 PUSH0 REVERT JUMPDEST PUSH0 PUSH2 0x2003 DUP3 PUSH2 0x1958 JUMP JUMPDEST SWAP2 POP PUSH2 0x200E DUP4 PUSH2 0x1958 JUMP JUMPDEST SWAP3 POP DUP3 DUP3 ADD SWAP1 POP DUP1 DUP3 GT ISZERO PUSH2 0x2026 JUMPI PUSH2 0x2025 PUSH2 0x1FCC JUMP JUMPDEST JUMPDEST SWAP3 SWAP2 POP POP JUMP JUMPDEST PUSH0 PUSH1 0xA0 DUP3 ADD SWAP1 POP PUSH2 0x203F PUSH0 DUP4 ADD DUP9 PUSH2 0x1AB1 JUMP JUMPDEST PUSH2 0x204C PUSH1 0x20 DUP4 ADD DUP8 PUSH2 0x1AB1 JUMP JUMPDEST PUSH2 0x2059 PUSH1 0x40 DUP4 ADD DUP7 PUSH2 0x1AB1 JUMP JUMPDEST PUSH2 0x2066 PUSH1 0x60 DUP4 ADD DUP6 PUSH2 0x19FC JUMP JUMPDEST PUSH2 0x2073 PUSH1 0x80 DUP4 ADD DUP5 PUSH2 0x1B69 JUMP JUMPDEST SWAP7 SWAP6 POP POP POP POP POP POP JUMP JUMPDEST PUSH0 PUSH1 0x80 DUP3 ADD SWAP1 POP PUSH2 0x2090 PUSH0 DUP4 ADD DUP8 PUSH2 0x1AB1 JUMP JUMPDEST PUSH2 0x209D PUSH1 0x20 DUP4 ADD DUP7 PUSH2 0x1A80 JUMP JUMPDEST PUSH2 0x20AA PUSH1 0x40 DUP4 ADD DUP6 PUSH2 0x1AB1 JUMP JUMPDEST PUSH2 0x20B7 PUSH1 0x60 DUP4 ADD DUP5 PUSH2 0x1AB1 JUMP JUMPDEST SWAP6 SWAP5 POP POP POP POP POP JUMP JUMPDEST PUSH32 0x4E487B7100000000000000000000000000000000000000000000000000000000 PUSH0 MSTORE PUSH1 0x21 PUSH1 0x4 MSTORE PUSH1 0x24 PUSH0 REVERT INVALID LOG2 PUSH5 0x6970667358 0x22 SLT KECCAK256 SELFDESTRUCT DUP6 0xA9 KECCAK256 0x2B LOG3 SWAP6 0xF7 XOR SWAP1 PREVRANDAO PUSH28 0x37C967FB42553960168C16434948F1571178538664736F6C63430008 XOR STOP CALLER "
		},
		"gasEstimates": {
			"creation": {
				"codeDepositCost": "1696600",
				"executionCost": "infinite",
				"totalCost": "infinite"
			},
			"external": {
				"DOMAIN_SEPARATOR()": "infinite",
				"allowance(address,address)": "infinite",
				"approve(address,uint256)": "infinite",
				"balanceOf(address)": "2918",
				"burn(uint256)": "infinite",
				"burnFrom(address,uint256)": "infinite",
				"contractBalance()": "2650",
				"decimals()": "450",
				"eip712Domain()": "infinite",
				"mint(address,uint256)": "infinite",
				"name()": "infinite",
				"nonces(address)": "2916",
				"owner()": "2626",
				"permit(address,address,uint256,uint256,uint8,bytes32,bytes32)": "infinite",
				"renounceOwnership()": "infinite",
				"symbol()": "infinite",
				"totalSupply()": "2500",
				"transfer(address,uint256)": "infinite",
				"transferFrom(address,address,uint256)": "infinite",
				"transferOwnership(address)": "infinite",
				"withdrawTokensTo(address,uint256)": "infinite"
			}
		},
		"methodIdentifiers": {
			"DOMAIN_SEPARATOR()": "3644e515",
			"allowance(address,address)": "dd62ed3e",
			"approve(address,uint256)": "095ea7b3",
			"balanceOf(address)": "70a08231",
			"burn(uint256)": "42966c68",
			"burnFrom(address,uint256)": "79cc6790",
			"contractBalance()": "8b7afe2e",
			"decimals()": "313ce567",
			"eip712Domain()": "84b0196e",
			"mint(address,uint256)": "40c10f19",
			"name()": "06fdde03",
			"nonces(address)": "7ecebe00",
			"owner()": "8da5cb5b",
			"permit(address,address,uint256,uint256,uint8,bytes32,bytes32)": "d505accf",
			"renounceOwnership()": "715018a6",
			"symbol()": "95d89b41",
			"totalSupply()": "18160ddd",
			"transfer(address,uint256)": "a9059cbb",
			"transferFrom(address,address,uint256)": "23b872dd",
			"transferOwnership(address)": "f2fde38b",
			"withdrawTokensTo(address,uint256)": "f5bf3fcf"
		}
	},
	"abi": [
		{
			"inputs": [
				{
					"internalType": "uint256",
					"name": "initialSupply",
					"type": "uint256"
				}
			],
			"stateMutability": "nonpayable",
			"type": "constructor"
		},
		{
			"inputs": [],
			"name": "ECDSAInvalidSignature",
			"type": "error"
		},
		{
			"inputs": [
				{
					"internalType": "uint256",
					"name": "length",
					"type": "uint256"
				}
			],
			"name": "ECDSAInvalidSignatureLength",
			"type": "error"
		},
		{
			"inputs": [
				{
					"internalType": "bytes32",
					"name": "s",
					"type": "bytes32"
				}
			],
			"name": "ECDSAInvalidSignatureS",
			"type": "error"
		},
		{
			"inputs": [
				{
					"internalType": "address",
					"name": "spender",
					"type": "address"
				},
				{
					"internalType": "uint256",
					"name": "allowance",
					"type": "uint256"
				},
				{
					"internalType": "uint256",
					"name": "needed",
					"type": "uint256"
				}
			],
			"name": "ERC20InsufficientAllowance",
			"type": "error"
		},
		{
			"inputs": [
				{
					"internalType": "address",
					"name": "sender",
					"type": "address"
				},
				{
					"internalType": "uint256",
					"name": "balance",
					"type": "uint256"
				},
				{
					"internalType": "uint256",
					"name": "needed",
					"type": "uint256"
				}
			],
			"name": "ERC20InsufficientBalance",
			"type": "error"
		},
		{
			"inputs": [
				{
					"internalType": "address",
					"name": "approver",
					"type": "address"
				}
			],
			"name": "ERC20InvalidApprover",
			"type": "error"
		},
		{
			"inputs": [
				{
					"internalType": "address",
					"name": "receiver",
					"type": "address"
				}
			],
			"name": "ERC20InvalidReceiver",
			"type": "error"
		},
		{
			"inputs": [
				{
					"internalType": "address",
					"name": "sender",
					"type": "address"
				}
			],
			"name": "ERC20InvalidSender",
			"type": "error"
		},
		{
			"inputs": [
				{
					"internalType": "address",
					"name": "spender",
					"type": "address"
				}
			],
			"name": "ERC20InvalidSpender",
			"type": "error"
		},
		{
			"inputs": [
				{
					"internalType": "uint256",
					"name": "deadline",
					"type": "uint256"
				}
			],
			"name": "ERC2612ExpiredSignature",
			"type": "error"
		},
		{
			"inputs": [
				{
					"internalType": "address",
					"name": "signer",
					"type": "address"
				},
				{
					"internalType": "address",
					"name": "owner",
					"type": "address"
				}
			],
			"name": "ERC2612InvalidSigner",
			"type": "error"
		},
		{
			"inputs": [
				{
					"internalType": "address",
					"name": "account",
					"type": "address"
				},
				{
					"internalType": "uint256",
					"name": "currentNonce",
					"type": "uint256"
				}
			],
			"name": "InvalidAccountNonce",
			"type": "error"
		},
		{
			"inputs": [],
			"name": "InvalidShortString",
			"type": "error"
		},
		{
			"inputs": [
				{
					"internalType": "address",
					"name": "owner",
					"type": "address"
				}
			],
			"name": "OwnableInvalidOwner",
			"type": "error"
		},
		{
			"inputs": [
				{
					"internalType": "address",
					"name": "account",
					"type": "address"
				}
			],
			"name": "OwnableUnauthorizedAccount",
			"type": "error"
		},
		{
			"inputs": [
				{
					"internalType": "string",
					"name": "str",
					"type": "string"
				}
			],
			"name": "StringTooLong",
			"type": "error"
		},
		{
			"anonymous": false,
			"inputs": [
				{
					"indexed": true,
					"internalType": "address",
					"name": "owner",
					"type": "address"
				},
				{
					"indexed": true,
					"internalType": "address",
					"name": "spender",
					"type": "address"
				},
				{
					"indexed": false,
					"internalType": "uint256",
					"name": "value",
					"type": "uint256"
				}
			],
			"name": "Approval",
			"type": "event"
		},
		{
			"anonymous": false,
			"inputs": [],
			"name": "EIP712DomainChanged",
			"type": "event"
		},
		{
			"anonymous": false,
			"inputs": [
				{
					"indexed": true,
					"internalType": "address",
					"name": "previousOwner",
					"type": "address"
				},
				{
					"indexed": true,
					"internalType": "address",
					"name": "newOwner",
					"type": "address"
				}
			],
			"name": "OwnershipTransferred",
			"type": "event"
		},
		{
			"anonymous": false,
			"inputs": [
				{
					"indexed": true,
					"internalType": "address",
					"name": "from",
					"type": "address"
				},
				{
					"indexed": true,
					"internalType": "address",
					"name": "to",
					"type": "address"
				},
				{
					"indexed": false,
					"internalType": "uint256",
					"name": "value",
					"type": "uint256"
				}
			],
			"name": "Transfer",
			"type": "event"
		},
		{
			"inputs": [],
			"name": "DOMAIN_SEPARATOR",
			"outputs": [
				{
					"internalType": "bytes32",
					"name": "",
					"type": "bytes32"
				}
			],
			"stateMutability": "view",
			"type": "function"
		},
		{
			"inputs": [
				{
					"internalType": "address",
					"name": "owner",
					"type": "address"
				},
				{
					"internalType": "address",
					"name": "spender",
					"type": "address"
				}
			],
			"name": "allowance",
			"outputs": [
				{
					"internalType": "uint256",
					"name": "",
					"type": "uint256"
				}
			],
			"stateMutability": "view",
			"type": "function"
		},
		{
			"inputs": [
				{
					"internalType": "address",
					"name": "spender",
					"type": "address"
				},
				{
					"internalType": "uint256",
					"name": "value",
					"type": "uint256"
				}
			],
			"name": "approve",
			"outputs": [
				{
					"internalType": "bool",
					"name": "",
					"type": "bool"
				}
			],
			"stateMutability": "nonpayable",
			"type": "function"
		},
		{
			"inputs": [
				{
					"internalType": "address",
					"name": "account",
					"type": "address"
				}
			],
			"name": "balanceOf",
			"outputs": [
				{
					"internalType": "uint256",
					"name": "",
					"type": "uint256"
				}
			],
			"stateMutability": "view",
			"type": "function"
		},
		{
			"inputs": [
				{
					"internalType": "uint256",
					"name": "value",
					"type": "uint256"
				}
			],
			"name": "burn",
			"outputs": [],
			"stateMutability": "nonpayable",
			"type": "function"
		},
		{
			"inputs": [
				{
					"internalType": "address",
					"name": "account",
					"type": "address"
				},
				{
					"internalType": "uint256",
					"name": "value",
					"type": "uint256"
				}
			],
			"name": "burnFrom",
			"outputs": [],
			"stateMutability": "nonpayable",
			"type": "function"
		},
		{
			"inputs": [],
			"name": "contractBalance",
			"outputs": [
				{
					"internalType": "uint256",
					"name": "",
					"type": "uint256"
				}
			],
			"stateMutability": "view",
			"type": "function"
		},
		{
			"inputs": [],
			"name": "decimals",
			"outputs": [
				{
					"internalType": "uint8",
					"name": "",
					"type": "uint8"
				}
			],
			"stateMutability": "view",
			"type": "function"
		},
		{
			"inputs": [],
			"name": "eip712Domain",
			"outputs": [
				{
					"internalType": "bytes1",
					"name": "fields",
					"type": "bytes1"
				},
				{
					"internalType": "string",
					"name": "name",
					"type": "string"
				},
				{
					"internalType": "string",
					"name": "version",
					"type": "string"
				},
				{
					"internalType": "uint256",
					"name": "chainId",
					"type": "uint256"
				},
				{
					"internalType": "address",
					"name": "verifyingContract",
					"type": "address"
				},
				{
					"internalType": "bytes32",
					"name": "salt",
					"type": "bytes32"
				},
				{
					"internalType": "uint256[]",
					"name": "extensions",
					"type": "uint256[]"
				}
			],
			"stateMutability": "view",
			"type": "function"
		},
		{
			"inputs": [
				{
					"internalType": "address",
					"name": "to",
					"type": "address"
				},
				{
					"internalType": "uint256",
					"name": "amount",
					"type": "uint256"
				}
			],
			"name": "mint",
			"outputs": [],
			"stateMutability": "nonpayable",
			"type": "function"
		},
		{
			"inputs": [],
			"name": "name",
			"outputs": [
				{
					"internalType": "string",
					"name": "",
					"type": "string"
				}
			],
			"stateMutability": "view",
			"type": "function"
		},
		{
			"inputs": [
				{
					"internalType": "address",
					"name": "owner",
					"type": "address"
				}
			],
			"name": "nonces",
			"outputs": [
				{
					"internalType": "uint256",
					"name": "",
					"type": "uint256"
				}
			],
			"stateMutability": "view",
			"type": "function"
		},
		{
			"inputs": [],
			"name": "owner",
			"outputs": [
				{
					"internalType": "address",
					"name": "",
					"type": "address"
				}
			],
			"stateMutability": "view",
			"type": "function"
		},
		{
			"inputs": [
				{
					"internalType": "address",
					"name": "owner",
					"type": "address"
				},
				{
					"internalType": "address",
					"name": "spender",
					"type": "address"
				},
				{
					"internalType": "uint256",
					"name": "value",
					"type": "uint256"
				},
				{
					"internalType": "uint256",
					"name": "deadline",
					"type": "uint256"
				},
				{
					"internalType": "uint8",
					"name": "v",
					"type": "uint8"
				},
				{
					"internalType": "bytes32",
					"name": "r",
					"type": "bytes32"
				},
				{
					"internalType": "bytes32",
					"name": "s",
					"type": "bytes32"
				}
			],
			"name": "permit",
			"outputs": [],
			"stateMutability": "nonpayable",
			"type": "function"
		},
		{
			"inputs": [],
			"name": "renounceOwnership",
			"outputs": [],
			"stateMutability": "nonpayable",
			"type": "function"
		},
		{
			"inputs": [],
			"name": "symbol",
			"outputs": [
				{
					"internalType": "string",
					"name": "",
					"type": "string"
				}
			],
			"stateMutability": "view",
			"type": "function"
		},
		{
			"inputs": [],
			"name": "totalSupply",
			"outputs": [
				{
					"internalType": "uint256",
					"name": "",
					"type": "uint256"
				}
			],
			"stateMutability": "view",
			"type": "function"
		},
		{
			"inputs": [
				{
					"internalType": "address",
					"name": "to",
					"type": "address"
				},
				{
					"internalType": "uint256",
					"name": "value",
					"type": "uint256"
				}
			],
			"name": "transfer",
			"outputs": [
				{
					"internalType": "bool",
					"name": "",
					"type": "bool"
				}
			],
			"stateMutability": "nonpayable",
			"type": "function"
		},
		{
			"inputs": [
				{
					"internalType": "address",
					"name": "from",
					"type": "address"
				},
				{
					"internalType": "address",
					"name": "to",
					"type": "address"
				},
				{
					"internalType": "uint256",
					"name": "value",
					"type": "uint256"
				}
			],
			"name": "transferFrom",
			"outputs": [
				{
					"internalType": "bool",
					"name": "",
					"type": "bool"
				}
			],
			"stateMutability": "nonpayable",
			"type": "function"
		},
		{
			"inputs": [
				{
					"internalType": "address",
					"name": "newOwner",
					"type": "address"
				}
			],
			"name": "transferOwnership",
			"outputs": [],
			"stateMutability": "nonpayable",
			"type": "function"
		},
		{
			"inputs": [
				{
					"internalType": "address",
					"name": "to",
					"type": "address"
				},
				{
					"internalType": "uint256",
					"name": "amount",
					"type": "uint256"
				}
			],
			"name": "withdrawTokensTo",
			"outputs": [],
			"stateMutability": "nonpayable",
			"type": "function"
		}
	]
}